:4000000000800020110000007D0C00007D0C000008B5044B1A6803F53F5302331A6000F04DFE00BFFA46004010B5054C237833B9044B13B10448AFF300800123237010BD1A
:40004000A081FF1F0000000018540000084B10B51BB108490848AFF300800848036803B910BD074B002BFBD0BDE81040184700BF00000000A481FF1F18540000C880FF1F7A
:4000800000000000704700BF08B5084B1B78DBB2042B02D90022054B1A70044A1378134401221A7102F058FB08BD00BFBC81FF1F08B5084B5B7ADBB2042B02D90022054BA4
:4000C0005A72044A537A134401221A7302F0B6FA08BD00BFBC81FF1F70B51F4B1B78DBB2042B02D900221C4B1A7002F049FB0446194A137813441B7913F0FF0F0AD1154625
:400100001678F6B202F048FB201A80B205EB4605A88204E0104B1A7803EB4203988202F047FB02F019FB204602F03CFB0A4B1B78DBB2032B05D8084A13780133DBB21370FB
:4001400002E00022044B1A70034A1378134400221A7102F051FB70BDBC81FF1F70B51F4B5B7ADBB2042B02D900221C4B5A7202F079FA0446194A537A13441B7B13F0FF0FD3
:400180000AD11546567AF6B202F078FA201A80B205EB4605288404E0104B5A7A03EB4203188402F077FA02F049FA204602F06CFA0A4B5B7ADBB2032B05D8084A537A01338D
:4001C000DBB2537202E00022044B5A72034A537A134400221A7302F081FA70BDBC81FF1F08B502F01BFA18B90022044B1A7002E00122024B1A7002F085FB08BDCC80FF1F6C
:4002000008B502F005FA18B90022044B5A7002E00122024B5A7002F07DFB08BDCC80FF1F10B5044601F080FA0028FBD0002384F83F30212384F83E30204603F017FE81B205
:40024000204601F035FA10BD10B5044601F06CFA0028FBD0204601F053FA10BD10B500F059FF10F0200F11D000F068FF0446FFF7EBFF074A92F82A30DBB206490968CC5421
:4002800092F82A300133DBB282F82A3010BD00BFBC81FF1FD482FF1F2DE9F04F8BB062B6002000F0D5FD002000F06CFE00F024FFA14B20221A6080221A600121002001F05C
:4002C00003F900F007FE00F04FFE02F007FA02F093FA9A4B03F12C01994A11609033994A136000F063FB8246102003F053F8054600260027C0E90267C0E900674FF0000866
:40030000DFF88492CDE90267CDE9006742464B468D4800F025FACDE90267CDE9006742464B468A4800F01CFA642003F033F80446874800F04BFE874800F074FE864802F085
:40034000F5F9864802F080FA854802F0CDFA854802F0A2FA844802F027FB844802F0FCFA8348FFF75DFFD34652468249204603F059FD2046FFF754FF0024704B93F82A3025
:40038000DBB2302BF9D920227B4B1A606C4908686C4B1E680E601860684890F82A10C9B2002380F82A306448026016E09A1C632A11DC634A10681A46C65CF6B2FF2E0AD14C
:4003C0005E1C865DF6B2FF2E05D10232825CD2B2012A00D11C460133DBB28B42E6D32346002208E0632B04D855490968C95C0A44D2B20133DBB204F12F018B42F2DB0AB19C
:40040000012100E000210BF1FF3304EB83030333DBB2DA1C632A22DC09BB494A16685A1CB25C120212B2F05CD91C715C090209B20233F65C0E43104302F058FC00224FF0DB
:400440007D5302F0B9FCC5E90001304602F04EFC00224A4B02F0B0FCC5E9020102E04848FFF7DEFE354E337806EB4303988A337833441A79434F3B780B2180B200F0C8F9CA
:4004800080468946737A06EB4303188C737A1E44327B7B780B2180B200F0BAF924A7D7E90067CDE90067082200F0F4F9CDE90601CDE9006708224046494600F0EBF9CDE936
:4004C0000801DDE9062300F017FA80468946CDE90067DDE90623DDE9080100F01BFACDE90601D5E90023CDE9002342464B46164800F048F980468946D5E90223CDE900231E
:40050000DDE90623114800F03DF90823059342F650530493CDE90267CDE9006702460B464046494600F0DEF827E700BFAFF300809A9999999999B93F00E100E0BC81FF1FCE
:40054000D482FF1FD082FF1F0083FF1FD882FF1F850000005D02000089000000B1000000D90000005D010000E101000001020000205400005854000080E100E00000903F14
:4005800068540000CC80FF1F0000F03F0000000008B502460B4602F05DFA05A3D3E9002302F00AFC0022044B02F030FD08BD00BF6E861BF0F921094000004E40F8B50546CC
:4005C0000C46104602F082FBFFF7E2FF06460F46002200232846214602F074FE30B12A4623463046394602F06DFE70B9002200232846214602F052FEA8B12A4604F100435C
:400600003046394602F05EFE78B132463B462846214602F0FBFC0022054B02F0CDFB02F065FE40B2F8BD6420F8BD6420F8BD00BF000059400000000038B5FFF7BFFF0546B9
:4006400002F054FB0022104B02F0E0FC0CA3D3E9002302F0B1FB02F049FE44B2002D06DDE0B200F059FC002000F05CFC38BD002000F052FC6042C0B200F054FC38BD00BFE9
:400680000000000000E06F40000059400000000038B5FFF793FF054602F028FB0022104B02F0B4FC0CA3D3E9002302F085FB02F01DFE44B2002D06DDE0B200F0E3FB00208B
:4006C00000F0E6FB38BD002000F0DCFB6042C0B200F0DEFB38BD00BF0000000000E06F40000059402DE9F04F87B0CDE90201CDE90423DDE91089DDE912ABBDF850409DF8B6
:400700005450CDE9008900F023F906460F46CDE90089DDE90423DDE9020100F02FF980468946CDE900AB2A463046394600F0C6F806460F46CDE900AB2A464046494600F09C
:40074000BDF880468946224630463946FFF7A0FF224640464946FFF76FFF07B0BDE8F08FC0E90023DDE90023C0E90223DDE90223C0E9042300220023C0E90823C0E9062358
:40078000704700BF2DE9F04782B08246DDE90A0102F05EF904460D46DAE9062302F058F980468946DAE908232046294602F052F906460F46CAE90867DAE900232046294683
:4007C00002F0FAFACDE90001DAE902234046494602F0F2FA80468946DAE904233046394602F0EAFA06460F46CAE9064542464B46DDE9000102F02EF902460B463046394611
:4008000002F028F902B0BDE8F08700BF000000002ABBD0B50C464BB102F068FA12A3D3E9002302F0C9FA06460F4609E0404202F05DFA0DA3D3E9002302F0BEFA06460F4694
:40084000204602F053FA02460B4609A1D1E9000102F0DCFB32463B4602F0D8FBD0BD002000217047AFF300808DEDB5A0F7C6E03E6E861BF0F921194038B504460D461046AB
:4008800002F034FA02460B462046294602F0BEFB38BD00BF38B5FFF7EFFF04460D460022054BDDE9040102F087FA02460B462046294602F081FA38BD0000E03F70B50446CF
:4008C0000D46164600220B4BDDE9040102F074FA02460B462046294602F098FB04460D46304602F003FA02460B462046294602F063FA70BD0000E03F38B514461D460246B6
:400900000B462046294602F0A5F80022002302F053FA38BD2DE9F8438046894616461F46DDE908230020094902F070FB04460D4642464B463046394602F08AF802460B466A
:400940002046294602F038FABDE8F8830000F03FF8B504460D4616461F460022064BDDE9060102F029FA32463B4602F025FA22462B4602F06FF8F8BD0000E03FF8B50446C8
:400980000D4616461F460022074BDDE9060102F013FA32463B4602F00FFA02460B462046294602F055F8F8BD0000E03F08B500F047FB38B1082807D0042807D00C2807D180
:4009C000042008BD012008BD022008BD032008BD052008BDFEE700BFF0B40022174611E050F82760F3B226F0FF0608E001EB420511F812406D78A5550132013BDBB2002BAC
:400A0000F4D101371E2FEBD9F0BC7047064B1B78DBB203F00701054A11701B09013213704422034B1A707047CF0100496E5800407658004008B50A46002102F0BEFC08BD6E
:400A400038B505222B4B1A801C232B4A1370192502321580182102321170BF2102321180023215704FF46B7102321180023213700622224B1A705222A3F580731A70204B1A
:400A80001B78DBB21F4A13704FF4E1621E4B1A8041F25122023B1A8000240CE01B4B1B7803F0010343EA440404F003044FF4F07001F08AFF013D0DB1032CEFD115B90320BB
:400AC000FFF788FF124A4FF48073138007231370002310490B7048200231087013700532137002220C4B1A700C4A137843F00F03137038BD80400040824000400043004038
:400B00000F010049A14600402242004025420040044000400640004001400040A243004008B502F03FFC08BD38B572B63C4A137843F00403137000240CE03A4D630019197C
:400B40004A0011462A44084691882858FFF772FF0134E4B2062CF0D900240BE03148A20011194B0003449A8E196BD86AFFF7D8FF0134E4B2012CF1D92B494FF09040FFF776
:400B80002BFF2A4A2A4B1A602A4A03F560631A60294A137843F0020313701032137843F002031370254C237843F040032370A2F58632513A137843F01003137008222049E8
:400BC0002048FFF7ADFF0A221F492048FFF7A8FF0A221F491F48FFF7A3FF08221E491F48FFF79EFF08221E491E48FFF799FF08221D491E48FFF794FF1D4A137843F0080300
:400C000013701C4D61232B70FFF71AFF81232B70FFF7FCFE0E2221461748FFF781FF38BDE8460040C85400007C00004840440404D80801400404044403500140A043004008
:400C4000AC07004802510040B4070048C0510040C0070048F0510040CC07004812510040D407004822510040DC070048325100402243004000480040B043004008B502F071
:400C80005DFB03680C2B00D1FEE7FEE708B5094B1A681044084BC31AB3F5007F02DC054B186005E002F04AFB0C2303604FF0FF32104608BDD080FF1F1884FF1F08B5104E3F
:400CC000104D16E029686B68AC68002204E051F8040B43F8040B0432A242F8D1E868002203E0002143F8041B04328242F9D11035013E002EE6D102F027FBFFF7CDFAFEE7EB
:400D0000010000000058000008B5104A104B1A60104A136843F40073136000230AE0032B03D80D4A52F8231000E00C490C4A42F8231001332F2BF2D90A4B1A780A4B1A707B
:400D4000074A0A4B1A60FFF7EFFE08BD0004FA050CED00E014ED00E0000000007D0C00000080FF1FBC760040C080FF1F08ED00E001BE704708B5034B1B7A00FB03F001F02D
:400D800023FE08BDD480FF1F70B504460E46074B1D681F2802D90020FFF7EAFF04F01F04103455F8240045F8246070BD08ED00E038B504460D46072902D90020FFF7D8FF0F
:400DC0001F2C02D90020FFF7D3FF04F01F0000F1604000F564406D01EDB2057038BD00BF134B1B78DBB20360124A127843EA02230360114A127843EA024303600F4A127859
:400E000043EA026303600E4B1B78DBB243600D4A127843EA022343600B4A127843EA024343600A4A127843EA02634360704700BF0301004904010049EC46004002010049F5
:400E400001010049000100490501004906010049014B1870704700BF79650040024A137843F080031370704779640040014B1870704700BF09640040014B1870704700BFB1
:400E800049640040014B1870704700BF29640040014B1870704700BF3964004008B50C4A137803F0C00343F0090313702032137843F001031370FF20FFF7D8FFFF20FFF759
:400EC000DBFF7F20FFF7DEFF3F20FFF7E1FF08BD7964004008B5054B1B7823B9FFF7DEFF0122024B1A70FFF7B9FF08BDB082FF1F024A137843F08003137070477A6500409D
:400F0000014B1870704700BF09650040014B1870704700BF49650040014B1870704700BF29650040014B1870704700BF3965004008B50C4A137803F0C00343F01203137022
:400F40001F32137843F001031370FF20FFF7D8FFFF20FFF7DBFF7F20FFF7DEFF3F20FFF7E1FF08BD7A65004008B5054B1B7823B9FFF7DEFF0122024B1A70FFF7B9FF08BDB9
:400F8000B182FF1F014B1870704700BF75650040014B1B685867704708ED00E04001C0B2014B1870704700BF0DE400E04FF40052014B1A60704700BF00E100E04FF400526D
:400FC000014B1A60704700BF80E100E010B50446FFF7F4FF2046FFF7DBFF0720FFF7DEFFFFF7E4FF10BD00BF014B1B68D866704708ED00E04001C0B2014B1870704700BF51
:401000000BE400E04FF40062014B1A60704700BF00E100E04FF40062014B1A60704700BF80E100E010B50446FFF7F4FF2046FFF7DBFF0720FFF7DEFFFFF7E4FF10BD00BF90
:40104000014B1878704700BF6565004008B511490520FFF799FE07210520FFF7A9FE00220D4B1A7072220D4B1A702022033B1A700B490720FFF788FE07210846FFF798FEE4
:401080000622084B1A70472210331A700222B03B1A7008BDBD110000B282FF1F8B650040551200002865004010B501F095FC04460D4A137843F020031370033A137843F0CC
:4010C00010031370094A2023136009490B7843F010030B70802307490B60136000F0E6F8204601F07DFC10BD9B65004000E100E09864004080E200E008B5054B5B7823B944
:40110000FFF7A4FF0122024B5A70FFF7CDFF08BDB282FF1F074B187800F07F00064B5B7913F0FF0F04D040F080000022024B5A71704700BF68650040B282FF1F2022194B43
:401140001A60194A9378DBB2D178C9B2127912F0FF0F01D18B4211D0144AD05CC0B20133DBB2092B00D900230F4A9370137913F0FF0F13D000220C4B1A710FE00C4B1B7875
:40118000DBB213F0200F06D00A4A1078C0B213F01E0F02D102E0002000E000202022064B1A60704780E100E0B282FF1F2883FF1F686500404B65004000E100E01D4B1B786E
:4011C000DBB213F01E0F05D01B4803F01E0201780A43027003F0200303F0FF0233B3174B1978C9B2164B1B78DBB21648C154164B1B7813F0FF0F02D00121144B1970104923
:401200000B780133DBB20B700B78DBB2092B02D900210B4B19700A4B1978C9B20C4B1B78DBB2994202D10121074B1970002AC5D1704700BF68650040B282FF1F4B650040C8
:40124000B582FF1F2883FF1FB682FF1FB782FF1FB482FF1F13E0104B1B78DBB2042B02D900220D4B1A700C4A1378DBB20B49CB5CDBB20B490B7013780133DBB21370064B6E
:401280001B78DBB2074A1278934204D0064B1B7813F0040FDFD07047B882FF1F3483FF1F48640040B982FF1F68640040054A137843F0020313701032137843F0020313708F
:4012C000704700BFA2430040F8B501F085FB0546404A137843F0010313701032137843F00103137001273C4B1F700226943B1E7002F5E2521B32137803F07F0313700020B6
:40130000FFF738FD354C237803F0F9032370344A137803F0DF03137023783B4323703846FFF728FD2820FFF725FD2E4B1A7802F07F021A701A7802F0BF021A7023783343F6
:4013400023703046FFF716FD237843F0040323700023254A137001321370284601F040FB07211720FFF724FD20491720FFF70CFD07211820FFF71CFD1D491820FFF704FD75
:4013800007211520FFF714FD1A491520FFF7FCFC07210820FFF70CFD17490820FFF7F4FC07210920FFF704FD14490920FFF7ECFC07210A20FFF7FCFC11490A20FFF7E4FC40
:4013C00007210C20FFF7F4FC0E490C20FFF7DCFCF8BD00BFA54300409D6000409443004012600040F851004084600040A91C0000911A0000A51C0000051C0000351C000070
:40140000691C0000B11C000008B5234B18700023224A1370224A1370224A1370224A1370224A1370224A1370224A1370224B4FF400021A604FF080721A604FF400121A6055
:401440004FF480721A604FF400721A604FF480621A6011B1012906D00BE0184A137803F0FE0313700AE0154A137843F00103137004E0124A137843F0010313700322104B4B
:401480001A708022203B1A70012001F09DFA04220C4B1A7008BD00BF5583FF1F5883FF1F7483FF1F7783FF1F6C83FF1F7683FF1F7983FF1F5483FF1F00E100E0096000402E
:4014C000286000401260004038B504460D46064B1B7823B9FFF7F8FE0122034B1A7029462046FFF791FF38BDBB82FF1F00230A4A13700A4A13700A4A13700A4A13700A4AC3
:4015000013700A4A13700A4A13700322094B1A708022203B1A7070475883FF1F7483FF1F7783FF1F6C83FF1F7683FF1F7983FF1F5483FF1F2860004000EB40008300024A1E
:4015400013445878704700BF7C83FF1F431EDBB2072B3CD8F0B4074600EB4004A3001C4C2344DB889BB2C3F500739A4208D900EB400293002344DA8892B2C2F5007292B219
:4015800000EB4004A300124C2344DB7843EA1223104D04012E192B55D3B2737039B909E0CE5C3D010C4C665501339BB200E000239A42F5D8420002449300054A13440022E8
:4015C0005A705A79D2B20001044B1A54F0BC70477C83FF1FFC5F004078600040FE5F004010B4FF2400230EE0094AD25C02EB42029100084A11448A7AD2B2824201D11C46DA
:4016000002230133DBB2012BEED9204610BC70474483FF1F7C83FF1F10B5204C2079FFF7DFFF237813F0800F0ED06378DBB2212B2FD11B4B07221A80C0EBC000194A10443E
:40164000586000F093FA10BD144B5B78DBB2202B02D0222B10D01EE0114A07231380C0EBC00310490B4453600F4A135C43F00103135400F0A3FA10BD084B9B780B4A22F8EB
:401680001030094A135C43F00203135400F02CF910BD002010BD002010BD00BF006000406083FF1FE480FF1F3C83FF1F5083FF1F70B506460D460F4B1B780F4AD45CE4B24D
:4016C00004EB440293000D4A13441B899BB28B4209D204EB44029300084A13441D89ADB20020FFF745FB2A4631462046FFF72EFF70BD00BFBC82FF1F4083FF1F7C83FF1F59
:4017000000B583B002A901F8010D054B1B78054AD05C0122FFF71AFF03B05DF804FB00BFBC82FF1F4083FF1F08B5034B1B78034AD05CFFF701FF08BDBC82FF1F4083FF1F6D
:40174000C37803F0030390F9020000280FDA032B06D002F001030B48C15442F001020EE0C2F380030848C15442F0040207E0032B05D0C2F340030548C15442F0020210466F
:40178000704700BF4083FF1F4483FF1F4883FF1F1D4B19781D4A13889BB20B449BB2138000220FE01A494B681B78DBB2194883544B6801334B600132D2B20B889BB2013BA9
:4017C0009BB20B80124B1B889BB20BB1072AE9D90D4B1B78DBB2082B00D05AB10E490B7883F080030B700F210C4B197002210C4B197004E0022309490B7009490B70094B3A
:401800001A70014B1A7070475483FF1F5683FF1F6083FF1F00600040EA83FF1F7583FF1F5883FF1F7883FF1F0222074B1A708022064B1A700F22064B1A700023054A1370D3
:40184000054A1370012070475883FF1FEA83FF1F7583FF1F5483FF1F7883FF1F08B5FFF797FF08BD10B4194B197801F00F010239C9B2174A13889BB20B449BB21380002000
:4018800011E0144A5468144B1B5CDBB223705368013353600130C0B20139C9B213889BB2013B9BB213800B4B1B889BB20BB10029E7D10A4B19700A4A137883F08003137010
:4018C0000B22084B1A7010BC704700BF296000405683FF1F6083FF1F006000407883FF1FEA83FF1F7583FF1F0623064A1370064A13708022054B1A700022054B1A70012019
:40190000704700BF5883FF1F7583FF1FEA83FF1F7883FF1F064B9B6843B1054B9A6810709A6804490988518000229A60704700BF6083FF1F5683FF1F08B5134B1A78D2B2F8
:401940001A701B78DBB213F0800F02D00F4A137008BD0220FFF7DEFF0D4B1B7803F06003202B05D0402B06D043B900F093FC06E001F03AF803E000F037FE00E0002010B9CC
:401980000322024B1A7008BD286000407583FF1F0060004008B5094B1978094A13889BB20B449BB213800022064B1A700120FFF7B1FF0322044B1A7008BD00BF5483FF1FA1
:4019C0005683FF1F5883FF1F7583FF1F08B50B4B1B78DBB2042B06D0062B07D0022B0BD1FFF7D8FF08BDFFF73DFF08BD0320FFF791FF0322024B1A7008BD00BF5883FF1FED
:401A00007583FF1F08B50022044B1A700120FFF781FF0322024B1A7008BD00BF5883FF1F7583FF1F08B50B4B1B7813F0FF0F07D0084A137843F0800307490B700023137020
:401A40000022064B1A700120FFF764FF0322044B1A7008BD7683FF1F086000405883FF1F7583FF1F08B5094B1B78DBB2042B06D0062B07D0022B07D1FFF7F0FE08BDFFF77C
:401A8000C1FF08BDFFF7CEFF08BD00BF5883FF1F08B5284B1B78DBB213F0100F48D013F0800F0CD003F00F03012B16D1FFF744FF214B1B7813F0800F11D1012312E013F08C
:401AC000400F03D0FFF7CEFF01230BE013F0200F07D0FFF77BFF012304E0002302E0002300E0002323B3134B1B7813F0800F1FD1124B1B78124A12781343124A1370127868
:401B0000D2B2934214D10C4B1B78DBB2094A127812F0800F07D1084B1B78DBB2054A1370137803F00F03044A1278D2B29342EAD108BD00BF286000407583FF1FEA83FF1FFC
:401B40007883FF1F296000400022064B1A80064B9B682BB1044A916800230B7092685380704700BF5683FF1F6083FF1F08B50F4B1B889BB213B9FFF757FE15E002220C4B98
:401B80001A7000220B4B1A70FFF7DEFF0A4AD179937943EA0123054A128892B2934201D2024A1380FFF7F4FD012008BD6083FF1F5883FF1FEA83FF1F0060004008B5042242
:401BC0000B4B1A7080220B4B1A70FFF7BDFF0A4AD179937943EA0123084A128892B2934201D2064A13800B22054B1A70012008BD5883FF1FEA83FF1F006000406083FF1F09
:401C00007583FF1F0122094B1A700F3B9B7C084B1B7B03F00303934204D0054AD37B83F08003D3730122024B5A7370470B6000407C83FF1F02220A4B1A700F3B93F82230E2
:401C4000084B1B7E03F00303012B04D0054AD37E83F08003D3760122024B5A76704700BF0B6000407C83FF1F04220C4B1A700F3B93F832300A4B93F8243003F00303012B8B
:401C800006D0074A92F8273083F0800382F827300122034B83F82520704700BF0B6000407C83FF1F704700BF08B5FFF71FFC08BD08B500F0A5FC08BD70B588B0054603AC73
:401CC000174E0FCE0FC43368237035B322232B7003236B7001A8FFF783F8002402231AE008AA224412F81C2C08A901EB121111F8141CE954581C00212954981C02F00F0212
:401D000008AE324412F8142C2A54DA1CA9540134E4B20433DBB2212BE2D908B070BD00BF0855000010B401233EE019461A010C242148845403EB4300820020480244527908
:401D400012F0FF0F13D003EB430082001B480244127912F0800F04D01801194A024494700AE01801164A02440820907004E01801134A0244802090704800084482000F48E0
:401D80000244D488E4B208010B4901448C71D088C0F30720C871D088C0B20871D288C2F307224A710133DBB2082BBED9FF22054B1A7010BC704700BF706000407C83FF1FB6
:401DC000FC5F00400A600040074B1A78074B03EBC2035B681A7C824204D9C0001030184440687047002070475583FF1F1C550000F8B5404B1B7813F0FF0F79D03D4B187885
:401E00000138C0B2FFF7E0FF047AC2683A4B1878C0B200236AE01178884264D13749095CC9B25578A9425ED1917801F07F01D67806F00306DFF8C8E04D000D44AF000EEB2B
:401E400007054FF0000C85F803C092F802C085F804C092F803C00EF807C097882F8192F90250002D0DDA012E01D1072700E00D274E000E44B500224E35446F7101266E70FE
:401E80000CE0012E01D1052700E009274E000E44B5001B4E35446F7100266E70DFF868E00F010EEB07060125B57001FA05F529448D00134929440D89C5F307250EF80750CF
:401EC0000D89EDB27570CE88F6B20E4D3D44AE71CE88C6F30726EE71CE88F6B22E71C988C1F30721697108320133DBB2A34292D3F8BD00BF7783FF1F6C83FF1FE883FF1F29
:401F00007C83FF1F70600040FC5F0040034B1A78034B03EBC2035868704700BF5583FF1F1C55000008B5084B18780138C0B2FFF74BFF30B142681279023200EBC203586816
:401F400008BD002008BD00BF7783FF1F2DE9F047002310E0724D5900CA189600AC190022AA55A270E2702281A272627034462C4462710133DBB2082BECD940B90AE00022A2
:401F80006849CA546849CA540133DBB200E00023012BF4D9654B1B7813F0FF0F00F0BD80624B18780138C0B2FFF70EFF80464368DB7913F0400F05D05D4A137843F0010305
:401FC000137004E05A4A137803F0FE03137098F808704FF0000A01266FE0D8F80C50002467E0AB7803F07F039E425FD1314606EB460083004A4803441B899BB2A8888342DE
:4020000006D206EB460E4FEA8E03454A134418812B784448C35CDBB26878834246D195F802C0DFF8FCE04B000B4498000EEB000383F804C0EB780EF80030EB7803F003033F
:4020400095F90200002813DA012B02D14FF0070901E04FF00D09DFF8C8E04B0003EB010C4FEA8C00704480F805900121417012E0012B02D14FF0050901E04FF00909DFF8D2
:40208000A0E04B0003EB010C4FEA8C00704480F8059000214170AB790A2B01D0022B05D1524631462846FFF74BFB824608350134E4B2BC4295D30136F6B2082E8DD9D8F89B
:4020C0000C0000220CE0837803F07F0310F8084B03EB43039900124B19448C720132D2B2BA42F0D3FFF71EFF124B1860002301210FE00B4D4A00501884002C44E3802289D8
:4021000092B213449BB203F0010213449BB20131C9B20829EDD9FFF705FEBDE8F08700BF7C83FF1FE883FF1F5C83FF1F7783FF1F7983FF1F7083FF1F08B5154B1B7903F01B
:402140007F035A1ED2B2072A20D8590019448A0010490A44917841F0010191700021D170517841F002015170127912F0800F05D01B01094A1A448D23937004E01B01064AB3
:402180001A4489239370FFF7AFFB08BD002008BD006000407C83FF1FFC5F0040274B1B7903F07F035A1ED2B2072A44D810B5590019448A0022490A44917801F0FE019170F4
:4021C0000021D1701F4C1801215C01F07F012154517801F0FD015170127912F0800F13D003EB43018A0016490A445278D2B2012A04D1224602440C23937019E01B01114A17
:402200001A440D23937013E003EB43018A000C490A445278D2B2012A05D11B01094A1A440823937004E01B01064A1A4409239370FFF75AFB10BD0020704700BF0060004046
:402240007C83FF1FFC5F004010B50E4B1C79E4B20D4B18780138C0B2FFF7B6FD43681B799C4201D9022C0AD8084A135DDBB208490B55044B9B78DBB21355012010BD0020B5
:4022800010BD00BF006000407783FF1FE883FF1F5C83FF1F10B59C4B1B78DBB200219B4A118013F0800F00F0AD80974A5278D2B20A2A00F27481DFE812F0690072017201E0
:4022C0007201720172010B007201920072019A008D4BDB78DBB2012B09D1FFF717FE42688A4B5A6012221A80FFF740FC10BD864BDB78DBB2022B13D1834B9878FFF764FDA2
:40230000002800F04E814268804B5A605A68D1785A68927842EA01221A80FFF727FC10BD794BDB78DBB2032B05D02CE00A7811440133DBB201E000237549734A9278D2B289
:40234000934203D20A7812F0FF0FEFD16E4B9B7813F0FF0F0BD06C4B9B78DBB26D4A127C934204D16C4C2046FFF7A6FC21460B7813F0FF0F00F017810B78644A13805160B5
:40238000FFF7F4FB10BD00F02FFB10BD13F0030317D0022B40F009815C490B805A4B1B7903F07F0303EB43039A005C4B1A449278D2B25B4B1A7000225A704B60FFF7D6FBE0
:4023C00010BD524902230B80564B1A78D2B2544B1A7000225A704B60FFF7C8FB10BD4B4B01221A80504A5A60FFF7C0FB10BD474A01231380444B1B794C490B445360FFF7AB
:40240000B5FB10BD404A5278013A0A2A00F2CF80DFE812F04C00CD009800CD000B00CD00CD00CD001300CD003000374B9B78DBB23F4A1370FFF758FA10BD334B9B7803F08B
:40244000FF041BB1601EC0B2FFF7BEFC04B110B9002C40F0AE80344B1B78DBB29C4206D0314B1C700120334B1870FFF76FFDFFF73BFA10BDFFF7E8FE002800F09C80224A8D
:402480001379DBB21279D2B22B490A702B4AD25CD2B22649CB5CDBB29A4204D00122254B1A70FFF7A5FCFFF71FFA10BD03F00303012B17D04BB1022B7FD1134B9B7813F083
:4024C000FF0F7CD1FFF76AFE10BD0F4B9B78DBB2012B76D1134A137803F0FD031370FFF703FA10BD084B1B79DBB2012B6BD8064B98781B79DBB21249CA5C22EA0002CA54B9
:40250000FFF7F2F910BD00BF006000406083FF1F8455000068560000F083FF1F7C83FF1FC082FF1F7983FF1F7783FF1FE883FF1F7683FF1F7483FF1F6C83FF1F5C83FF1FF7
:40254000EC83FF1F03F00303012B17D04BB1022B3BD1224B9B7813F0FF0F38D1FFF7ECFD10BD1E4B9B78DBB2012B32D11C4A137843F002031370FFF7B7F910BD174B1B79FA
:40258000DBB2012B27D8154B98781B79DBB21549CA5C22EA0002CA54FFF7A6F910BD002010BD002010BD002010BD002010BD002010BD002010BD002010BD002010BD002038
:4025C00010BD002010BD002010BD002010BD002010BD002010BD002010BD00BF006000407983FF1FEC83FF1F044B1B7813F0800F01D0024B5B780020704700BF00600040DF
:40260000024B1878C0F38010704700BF8F450040014B1878C009704731510040024B1878C0F34000704700BFC1510040024A137843F080031370704777650040024A137880
:4026400003F07F031370704777650040014B1870704700BF87650040014B1878704700BF67650040014B188880B270474C6A0040014B1880704700BF4C6A0040014B1888B4
:4026800080B270478C6A0040014B1880704700BF0C6A004008B501E0FFF7F0FFFFF7DCFF10F0080FF8D108BD08B54FF6FF70FFF7DFFF4FF6FF70FFF7E7FF00F08DF9064A57
:4026C000137843F01003137000F08AF9FFF7E2FF0020FFF7BBFF08BD9765004008B5054B1B7823B9FFF7E0FF0122024B1A70FFF79DFF08BDC282FF1F014B1B685864704725
:4027000008ED00E04001C0B2014B1870704700BF01E400E00222014B1A60704700E100E00222014B1A60704780E100E010B50446FFF7F6FF2046FFF7DFFF0720FFF7E2FF8C
:40274000FFF7E8FF10BD00BF024A137843F080031370704774650040024A137803F07F031370704774650040014B1870704700BF84650040014B1878704700BF64650040A3
:40278000014B188880B27047486A0040014B1880704700BF486A0040014B188880B27047886A0040014B1880704700BF086A004008B501E0FFF7F0FFFFF7DCFF10F0080F88
:4027C000F8D108BD08B54FF6FF70FFF7DFFF4FF6FF70FFF7E7FF00F0FFF8064A137843F01003137000F0FCF8FFF7E2FF0020FFF7BBFF08BD9465004008B5054B1B7823B9E6
:40280000FFF7E0FF0122024B1A70FFF79DFF08BDC382FF1F014B1B681864704708ED00E04001C0B2014B1870704700BF00E400E00122014B1A60704700E100E00122014BA7
:402840001A60704780E100E010B50446FFF7F6FF2046FFF7DFFF0720FFF7E2FFFFF7E8FF10BD00BF014B1B689864704708ED00E04001C0B2014B1870704700BF02E400E031
:402880000422014B1A60704700E100E00422014B1A60704780E100E010B50446FFF7F6FF2046FFF7DFFF0720FFF7E2FFFFF7E8FF10BD00BF014B1B68D864704708ED00E09E
:4028C0004001C0B2014B1870704700BF03E400E00822014B1A60704700E100E00822014B1A60704780E100E010B50446FFF7F6FF2046FFF7DFFF0720FFF7E2FFFFF7E8FFB5
:4029000010BD00BF024B1878C0F38010704700BF82450040024B187800F00100704700BF80450040014B1B681865704708ED00E04001C0B2014B1870704700BF04E400E088
:402940001022014B1A60704700E100E01022014B1A60704780E100E010B50446FFF7F6FF2046FFF7DFFF0720FFF7E2FFFFF7E8FF10BD00BF014B1B689865704708ED00E004
:402980004001C0B2014B1870704700BF06E400E04022014B1A60704700E100E04022014B1A60704780E100E010B50446FFF7F6FF2046FFF7DFFF0720FFF7E2FFFFF7E8FF81
:4029C00010BD00BF000000000230800803D000BF01380046FCD17047EFF3108072B6704780F31088704700BF08B5144B1B7803F00303012B02D0022B04D00FE00F4B1B79A6
:402A0000DBB20CE00D4B1B7903F07F0303EB43039A000B4B1A44937ADBB200E00023022B07D8084A1268D35C022B04D1FEF7F4FD08BD002008BD002008BD00BF00600040C0
:402A40007C83FF1F7083FF1F81F0004102E000BF83F0004330B54FEA41044FEA430594EA050F08BF90EA020F1FBF54EA000C55EA020C7FEA645C7FEA655C00F0E2804FEA04
:402A80005454D4EB5555B8BF6D420CDD2C4480EA020281EA030382EA000083EA010180EA020281EA0303362D88BF30BD11F0004F4FEA01314FF4801C4CEA113102D04042F0
:402AC00061EB410113F0004F4FEA03334CEA133302D0524263EB430394EA050F00F0A780A4F10104D5F1200E0DDB02FA0EFC22FA05F2801841F1000103FA0EF2801843FA3C
:402B000005F359410EE0A5F120050EF1200E012A03FA0EFC28BF4CF0020C43FA05F3C01851EBE37101F0004507D54FF0000EDCF1000C7EEB00006EEB0101B1F5801F1BD3FE
:402B4000B1F5001F0CD349085FEA30004FEA3C0C04F101044FEA445212F5800F80F09A80BCF1004F08BF5FEA500C50F1000041EB045141EA050130BD5FEA4C0C404141EBE7
:402B8000010111F4801FA4F10104E9D191F0000F04BF01460020B1FA81F308BF2033A3F10B03B3F120020CDA0C3208DD02F1140CC2F10C0201FA0CF021FA02F10CE002F1FF
:402BC0001402D8BFC2F1200C01FA02F120FA0CFCDCBF41EA0C019040E41AA2BF01EB0451294330BD6FEA04041F3C1CDA0C340EDC04F11404C4F1200220FA04F001FA02F3DF
:402C000040EA030021FA04F345EA030130BDC4F10C04C4F1200220FA02F001FA04F340EA0300294630BD21FA04F0294630BD94F0000F83F4801306BF81F480110134013DCC
:402C40004EE77FEA645C18BF7FEA655C29D094EA050F08BF90EA020F05D054EA000C04BF1946104630BD91EA030F1EBF0021002030BD5FEA545C05D14000494128BF41F04B
:402C8000004130BD14F580043CBF01F5801130BD01F0004545F0FE4141F470014FF0000030BD7FEA645C1ABF194610467FEA655C1CBF0B46024650EA013406BF52EA033571
:402CC00091EA030F41F4002130BD00BF90F0000F04BF0021704730B54FF4806404F132044FF000054FF0000150E700BF90F0000F04BF0021704730B54FF4806404F1320409
:402D000010F0004548BF40424FF000013EE700BF42004FEAE2014FEA31014FEA02701FBF12F07F4393F07F4F81F06051704792F0000F14BF93F07F4F704730B54FF46074F9
:402D400001F0004521F0004120E700BF50EA010208BF704730B54FF000050AE050EA010208BF704730B511F0004502D5404261EB41014FF4806404F132045FEA915C3FF4AF
:402D8000DCAE4FF003025FEADC0C18BF03325FEADC0C18BF033202EBDC02C2F1200300FA03FC20FA02F001FA03FE40EA0E0021FA02F11444C1E600BF70B54FF0FF0C4CF476
:402DC000E06C1CEA11541DBF1CEA135594EA0C0F95EA0C0F00F0DEF82C4481EA030621EA4C5123EA4C5350EA013518BF52EA033541F4801143F4801338D0A0FB02CE4FF0A4
:402E00000005E1FB02E506F00042E0FB03E54FF00006E1FB03569CF0000F18BF4EF0010EA4F1FF04B6F5007F64F5407404D25FEA4E0E6D4146EB060642EAC62141EA55517D
:402E40004FEAC52040EA5E504FEACE2EB4F1FD0C88BFBCF5E06F1ED8BEF1004F08BF5FEA500E50F1000041EB045170BD06F0004646EA010140EA020081EA0301B4EB5C04D9
:402E8000C2BFD4EB0C0541EA045170BD41F480114FF0000E013C00F3AB8014F1360FDEBF002001F0004170BDC4F10004203C35DA0C341BDC04F11404C4F1200500FA05F30C
:402EC00020FA04F001FA05F240EA020001F0004221F0004110EBD37021FA04F642EB06015EEA430E08BF20EAD37070BDC4F10C04C4F1200500FA04F320FA05F001FA04F230
:402F000040EA020001F0004110EBD37041F100015EEA430E08BF20EAD37070BDC4F1200500FA05F24EEA020E20FA04F301FA05F243EA020321FA04F001F0004121FA04F24E
:402F400020EA020000EBD3705EEA430E08BF20EAD37070BD94F0000F0FD101F00046400041EB010111F4801F08BF013CF7D041EA060195F0000F18BF704703F000465200D7
:402F800043EB030313F4801F08BF013DF7D043EA0603704794EA0C0F0CEA135518BF95EA0C0F0CD050EA410618BF52EA4306D1D181EA030101F000414FF0000070BD50EA74
:402FC000410606BF1046194652EA430619D094EA0C0F02D150EA013613D195EA0C0F05D152EA03361CBF104619460AD181EA030101F0004141F0FE4141F470014FF000009B
:4030000070BD41F0FE4141F4780170BD70B54FF0FF0C4CF4E06C1CEA11541DBF1CEA135594EA0C0F95EA0C0F00F0A7F8A4EB050481EA030E52EA03354FEA013100F08880BB
:403040004FEA03334FF0805545EA131343EA12634FEA022245EA111545EA10654FEA00260EF000419D4208BF964244F1FD0404F5407402D25B084FEA3202B61A65EB0305B5
:403080005B084FEA32024FF480104FF4002CB6EB020E75EB030E22BFB61A754640EA0C005B084FEA3202B6EB020E75EB030E22BFB61A754640EA5C005B084FEA3202B6EBE5
:4030C000020E75EB030E22BFB61A754640EA9C005B084FEA3202B6EB020E75EB030E22BFB61A754640EADC0055EA060E18D04FEA051545EA16754FEA06164FEAC30343EAF0
:4031000052734FEAC2025FEA1C1CC0D111F4801F0BD141EA00014FF000004FF0004CB6E711F4801F04BF01430020B4F1FD0C88BFBCF5E06F3FF6AFAEB5EB030C04BFB6EB43
:40314000020C5FEA500C50F1000041EB045170BD0EF0004E4EEA113114EB5C04C2BFD4EB0C0541EA045170BD41F480114FF0000E013C90E645EA060E8DE60CEA135594EA32
:403180000C0F08BF95EA0C0F3FF43BAF94EA0C0F0AD150EA01347FF434AF95EA0C0F7FF425AF104619462CE795EA0C0F06D152EA03353FF4FDAE1046194622E750EA410692
:4031C00018BF52EA43067FF4C5AE50EA41047FF40DAF52EA43057FF4EBAE12E74FF0FF3C06E000BF4FF0010C02E000BF4FF0010C4DF804CD4FEA410C7FEA6C5C4FEA430CA9
:4032000018BF7FEA6C5C1BD001B050EA410C0CBF52EA430C91EA030F02BF90EA020F0020704710F1000F91EA030F58BF994208BF90422CBFD8176FEAE37040F001007047C7
:403240004FEA410C7FEA6C5C02D150EA013C07D14FEA430C7FEA6C5CD6D152EA033CD3D05DF8040B704700BF8446104662468C461946634600E000BF01B5FFF7B7FF002852
:4032800048BF10F1000F01BD4DF808EDFFF7F4FF0CBF012000205DF808FB00BF4DF808EDFFF7EAFF34BF012000205DF808FB00BF4DF808EDFFF7E0FF94BF012000205DF897
:4032C00008FB00BF4DF808EDFFF7CEFF94BF012000205DF808FB00BF4DF808EDFFF7C4FF34BF012000205DF808FB00BF4FEA410212F5001215D211D56FF47873B3EB625224
:4033000012D94FEAC12343F0004343EA505311F0004F23FA02F018BF404270474FF00000704750EA013005D111F0004008BF6FF0004070474FF00000704700BF014B1868BA
:40334000704700BF6081FF1F0E4B70B51E460E4C0025E41AA410A54204D056F8253098470135F8E702F03AFA084B094C1E46E41AA4100025A54204D056F8253098470135F7
:40338000F8E770BDE8570000E8570000E8570000F0570000024B0146186800F063B800BF6081FF1F10B5431E0A44914204D011F8014B03F8014FF8E710BD03460244934255
:4033C00002D003F8011BFAE77047000038B50546002944D051F8043C0C1F002BB8BFE41801F084FB1E4A1368114613B96360146030E0A3420DD92268A018834201BF1868B6
:403400005B681218226063600C6023E0A24203D813465A68002AF9D118681918A1420BD12168014458188242196013D110685268014419605A600DE002D90C232B6009E039
:4034400021686018824201BF106852680918216062605C602846BDE8384001F048BB38BDC882FF1F70B5CD1C25F0030508350C2D38BF0C25002D064601DBA94202D90C2386
:40348000336046E001F032FB234B1C681A462146A1B10B685B1B0ED40B2B03D90B60CC18CD501EE08C420BBF63684B681360636018BF0C4615E00C464968E9E7174C2368B8
:4034C0001BB9304600F09EFC20602946304600F099FC431C18D0C41C24F00304A0420DD12560304601F003FB04F10B00231D20F00700C31A0ED05A42E25070BD211A304664
:4035000000F080FC0130EBD10C233360304601F0EEFA002070BD00BFC882FF1FC482FF1F2DE9F04788B0149F002B1E461299B8BF03F1004327F02007B6BF1E4600232D239F
:40354000462F1446109DDDF84CA00B7003D0452F03D1013501E0032300E0022307AA049206AA03928DE828042246334600F014FD472F804602D1119BDB0728D5462F08EB25
:40358000050911D198F80030302B0AD10022002320463146FFF778FE18B9C5F10105CAF80050DAF8003099440022002320463146FFF76AFE08B9302202E0CDF81C9006E04D
:4035C000079B994503D9591C07911A70F8E74046079B159AC8EB0303136008B0BDE8F087034673B50029B8BF494203F8022BB4BF2D222B22092942701ADD0DF10702164611
:403600000A2591FBF5F405FB1411092C01F1300102F8011D2146F4DC3031541E02F8011CB4421A460AD214F8012B03F8012BF7E71A463024214402F8024B5970101A02B0BC
:4036400070BD00002DE9F04F91B00C46DDF8688016461F46054601F037FA03681846099300F004FC00230E93D8F800300A90073323F0070303F1080294F81890D4F800B092
:40368000C8F80020D3E90023C4E91223D4F84CA0D4F848802AF000430B934FF0FF32A74B40460B9901F0A2FEA0B94FF0FF32A34B40460B99FFF7FCFD60B900220023404651
:4036C0005146FFF7EBFD10B12D2384F843309C4B9C4A0AE0424653464046514601F086FE002800F09281984B984AB9F1470F8CBF90469846032323612BF0040323604FF06E
:40370000000A3DE0B9F1670F00F08A81B9F1470F00F0868123600193636800210DF13302059002920093424653460691CDF81090CDF80CE02846FFF7F3FE09F0DF03472BEE
:40374000804600F08481B9F1650F0D9900F28D8101394A4604F150000D91FFF741FF0E9A82468318012A236100F37C812268D10700F178819DF8333013B12D2384F84330F6
:40378000009733460FAA2146284600F09FF9013002D14FF0FF3096E123685A0501D4236965E0B9F1650F40F2D580D4E9120100220023FFF769FD78B30123654A3146284671
:4037C000B8470130E5D00E9B0D9A9A420BDB2368D80708D423689B0740F111814FF0000804F1190906E10A9B099A31462846B8470130CED04FF0000804F11A090E9B013B18
:403800009845E7DA01234A4631462846B8470130BFD008F10108F1E70D9B002B29DC01234B4A31462846B8470130B2D00D9B23B90E9B13B92368D907CCD50A9B099A3146CC
:403840002846B8470130A4D04FF0000904F11A0A0D9B5B42994509DA0123524631462846B847013095D009F10109F1E70E9B4246A7E00E9AA36D9A42A8BF1A46002A9146A9
:4038800006DC4FF0000A29EAE97904F11A0B11E01346314642462846B8470130F1D178E701235A4631462846B84701303FF471AF0AF1010AA36DC9EB03029245F0DB08EBB6
:4038C00003090D9A0E9B9A420FDB2368DA070CD40E9B0D9A9844C9EB08089B1A9845A8BF9846B8F1000F08DC0FE00A9B099A31462846B8470130EBD14BE743464A4631462D
:403900002846B84701303FF444AF4FF0000928EAE87804F11A0A09E00123524631462846B84701303FF435AF09F101090D9A0E9B9B1AC8EB03039945EEDB4BE7FFFFEF7F18
:403940007C5600008056000084560000885600008C5600000E9A012A01DCDB0738D50123424631462846B84701303FF412AF0A9B099A31462846B84701303FF40AAFD4E9AB
:40398000120100220023FFF77FFC20B14FF0000804F11A090EE00E9B08F10102013B19E001234A4631462846B84701303FF4F1AE08F101080E9B013B9845F1DB534604F18D
:4039C000500231462846B84701307FF403AFE0E64246012331462846B8470130EED1D8E601234A4631462846B84701303FF4D1AE08F10108E3680F9A9B1A9845F0DBE06821
:403A00000F9B9842B8BF18465DE062680EA8531C0DF1340E4BF480637FF474AE062201E012B90122626075E6002106910DF133018DE80C00236005904246CDF81090CDF8C1
:403A40000CE0029153462846FFF76AFD80460D9BD81C02DB626893421DDDA9F102095FFA89F970E60133236184E6B9F1660F14D10029636807DD216113B92268D2071DD514
:403A800001330B4419E013B92268D00701D5023313E0012311E04FF067090D9B0E9A934205DB22682361D10708D5013305E0002BD4BFC3F102030123134423610D9B4FF05D
:403AC000000AA36556E611B0BDE8F08F2DE9F04791461F460A698B6806469342B8BF1346C9F8003091F843200C46DDF8208012B10133C9F800302368990642BFD9F80030FB
:403B00000233C9F80030256815F0060510D104F1190A07E00123524639463046C04701301AD00135E368D9F800209B1A9D42F1DB94F843302268003318BF012392060FD50A
:403B4000E118302081F843005A1C94F845102244023382F8431003E04FF0FF30BDE8F08704F1430239463046C0470130F4D02268D9F80050E36802F00602042A08BF5D1B8C
:403B80002269A3680CBF25EAE57500259342C4BF9B1AED184FF000091A344D4509D00123224639463046C0470130D5D009F10109F3E70020BDE8F0872DE9F04317460A7E5D
:403BC00085B06E2A984606460C460C9B01F1430E00F0AE8011D8632A22D009D8002A00F0BB80582A40F0CA8081F84520834955E0642A1ED0692A1CD0C0E0732A00F0B080A3
:403C000009D86F2A2ED0702A40F0B8800A6842F020020A603EE0752A24D0782A3AD0ADE01A6801F14205111D1960136884F84230A8E021681A6811F0800F02D0111D196089
:403C400008E011F0400F02F10401196002D0B2F9003000E01368002B3CDA2D225B4284F8432037E021681A6811F0800F02D0111D196007E011F0400F02F10401196001D0E3
:403C8000138800E01368227E5C496F2A14BF0A2208221BE078225A4984F845202268186812F0800F00F104051D6003D1550601D5038800E00368D00744BF42F02002226051
:403CC0001BB9226822F0200222601022002084F8430001E049490A226568002DA56008DB206820F0040020602BB9002D7DD175460CE0002B79D07546B3FBF2F002FB1033FD
:403D0000CB5C05F8013D03460028F5D1082A0BD12368DA0708D5236962689A42DEBF302305F8013C05F1FF35C5EB0E0323612EE008681A6810F0800F496903D0101D18600F
:403D4000136808E010F0400F02F104001860136801D0198000E0196000232361754616E01A68111D1960156800216268284600F0AFFE08B1401B6060636804E004F1420531
:403D800084F8422001232361002384F84330CDF800803B4603AA21463046FFF797FE013002D14FF0FF3026E023692A4639463046C0470130F5D023689B0710D5002504F1FE
:403DC000190907E001234A4639463046C0470130E7D00135E368039A9B1A9D42F2DBE068039B9842B8BF184605E00B7804F1420584F842308AE705B0BDE8F0838E5600005A
:403E00009F56000038B5064C0023054608462360FCF73CFF431C02D1236803B12B6038BD1484FF1F0EB400B54FF402719CB0ADF814106FF00041049107914FF6FF711DABAE
:403E400002900690084853F8042BADF81610006802A9019301F08AF9029B00221A701CB05DF804EB03B070476081FF1F034613F8012B002AFBD1181A013870472DE9F74FB4
:403E800003690C6980469C427FDC013C01F114074FEA840E00F1140606EB0E0357F82450019356F824300135B3FBF5F507EB0E09C5B34FF0000A3846B446D34650F8043B57
:403EC0009AB205FB02A21B0C4FEA124A05FB03A392B2C2EB0B0BBCF800204FEA134A5A441FFA83FBDCF800308145CBEB134303EB224392B242EA03424FEA234B4CF8042BD2
:403F0000DCD256F80E306BB9019B043B9E421A4602D3C8F8104005E01268043B002AF8D1013CF3E7404600F0F0FF00282BDB304601354FF0000E57F8042B036891B2C1EB17
:403F40000E0E120C99B27144C2EB134303EB214389B24FEA234EB94541EA034340F8043BE9D256F8242006EB840362B9043B9E421A4602D3C8F8104005E01268043B002ADB
:403F8000F8D1013CF3E7284600E0002003B0BDE8F08F0000000000002DE9F04F456A95B08246219CCDE9022345B91020FFF7F2F9CAF82400456085600560C560DAF8243004
:403FC000196859B15A68012393404A608B60504600F0C3FDDAF8243000221A60039BA04A002BBDBF01232360039B0023BCBF23F000430393DDF80C80A8BF236028F000433C
:404000001B0D1B0593421DD142F20F73209A1360029B43B9934A944BC8F31300002814BF1846104600E09048229B002B00F04685C37813B100F1080300E0C31C229A13607C
:4040400000F03CBDDDE902450022002320462946FFF71AF9074658B1209A01231360229B002B00F01E8581481860013800F026BD12AB019313AB009322462B46504600F0B7
:40408000BFFFC8F30A56049056B1C5F3130343F07F51204641F44011A6F2FF3611971DE0139B129E1E4406F23243202B0ADD029A06F21240C3F1400322FA00F008FA03F31D
:4040C000184304E0C3F12000029B03FA00F0FEF7FDFD0123A1F1F871013E11930022644BFEF7B6FC58A3D3E90023FEF765FE58A3D3E90023FEF7AEFC044630460D46FEF707
:40410000F5FD55A3D3E90023FEF756FE02460B4620462946FEF79EFC04460D46FFF7E6F800228346002320462946FFF7B7F858B15846FEF7DBFD02460B4620462946FFF79F
:40414000A3F808B90BF1FF3BBBF1160F0DD8DDE90223484901EBCB01D1E90001FFF7BCF830B10BF1FF3B002300E00123109300E01090129B9E1B731E079343BFC3F10008AE
:40418000002307934FF00008BBF1000F06DB079BCDF82CB05B440793002705E00023CBEB0808CBF100070B931E9B092B28D8052BC4BF043B1E931E9BC8BF0025A3F10203FF
:4041C000D8BF0125032B20D8DFE803F0060E0204012302E0012308E000230A931F9B002B1DDD9946059321E000230A931F9B0BEB030909F10103012B0593B8BF012315E011
:40420000012500231E930A9501E001230A934FF0FF390022CDF8149012231F9206E04FF001094B46CDF81490CDF87C90DAF8244000226260042101F114029A421CD8626880
:40424000490001326260F6E761436F63A787D23FB3C8608B288AC63FFB799F501344D33F0000F07FB0560000B95600008D5600000000F83FC85600006168504600F038FC46
:40428000DAF8243020601B680693059B0E2B00F25B81002D00F05881DDE90234BBF1000FCDE90E3430DD9F4A0BF00F034FEA2B1502EBC303E80618CBCDE908340CD5DDE957
:4042C0000E01994B05F00F05D3E90823FEF79EFE0324CDE9020100E00224934E6DB1E90708D5DDE90801D6E90023FEF765FDCDE9080101346D100836F0E7DDE90823DDE953
:404300000201FEF783FE20E0CBF1000505B3DDE90E01844B05F00F0203EBC203D3E90023FEF74AFDCDE902017F4E2D110023022455B1EA0705D5D6E90023FEF73DFD0134EF
:4043400001236D100836F3E71BB1CDE9020100E00224109BE3B1DDE902560022734B28463146FEF79BFF98B1059B8BB1B9F1000F40F3E6800BF1FF330893314600226C4BB8
:404380002846FEF719FD0134CDE902014E4602E0059ECDF820B02046FEF7A8FCDDE90223FEF70AFD634B0022FEF754FBA1F1507304460C931D46D6B9DDE9020100225E4B2A
:4043C000FEF746FB22460C9BCDE90201FEF784FF002840F03F820C99224601F10043DDE90201FEF75BFF002840F02B82A8E00A9A4C4B711E002A49D003EBC103D3E90023A9
:4044000000204E49FEF702FE22462B46FEF720FBCDE90C01069CDDE90201FEF767FF0546FEF764FC02460B46DDE90201FEF710FBDDE90C23303504F8015BCDE90201FEF7FC
:404440002DFF002840F01D83DDE9022300203749FEF7FEFADDE90C23FEF720FF002840F0D180069BE31AB3426ADADDE90C0100222F4BFEF7A1FC0022CDE90C01DDE9020168
:404480002B4BFEF799FCCDE90201C4E703EBC1012246D1E900012B46FEF78EFC069BCDE90C011D469C19DDE90201FEF71FFF0646FEF71CFC02460B46DDE90201FEF7C8FA0B
:4044C000303605F8016BAC42CDE902014FF0000222D11A4BDDE90C01FEF7BCFA02460B46DDE90201FEF7F8FE002840F08B80DDE90C2300201149FEF7ABFA02460B46DDE917
:404500000201FEF7CBFED8B114F8013C621E302B40F0B7821446F7E7054BFEF74DFCCDE90201C0E7C8560000A05700000000F03F0000244000001C40000014400000E03F07
:40454000DDE90E34CDE90234139B002B7CDBBBF10E0F79DCAB4B03EBCB03D3E900671F9B002B14DA059B002B11DC40F06C810022A54B30463946FEF71FFCDDE90223FEF785
:40458000A1FE059D2E46002840F05F8165E1069CDDE9028932463B4640464946FEF736FDFEF7A4FE0546FEF7A1FB32463B46FEF703FC0B46024649464046FEF749FA05F163
:4045C000300E069B04F801EBC3EB040E059B73452DD102460B46FEF73DFA8046894602460B4630463946FEF759FE78B942464B4630463946FEF748FE002800F04482EB0760
:4046000004D440E2DDF820B000E01C4614F8012C631E392A07D1069A9A42F6D1069930220BF1010B0A701A7801321A702BE20022764BFEF7C1FB0022002380468946FEF72F
:4046400023FE0028A6D01EE20A9A002A2BD01E9A012A0ADC119A12B103F2334302E0129BC3F136033D46444613E0059B5D1EAF42BFBF0B9BEA1B9B180B93059BB6BF2F4684
:404680007D1B0025002BA7BF4446059BC3EB08040023079A01211A4450469844079200F0FBFA064602E03D4644460A9E5CB1079B002B08DDA342A8BF2346079AC3EB0808DE
:4046C000E41AD31A0793002F1DDD0A9BABB18DB131462A46504600F079FB049A01460646504600F0E2FA04990890504600F035FA089B04937A1B06D000E03A460499504637
:4047000000F064FB04900121504600F0C5FA0B9B05465BB31A460146504600F057FB1E9B0546012B18DC029B83B9039BC3F3130373B9039B23F000473F0D3F054FB1079BF4
:4047400008F1010801330793012702E0002700E0029F0B9B73B100E000272B6905EB8303186900F04CFAC0F1200004E01E9B012BD9DD0B9F0120079B184410F01F0008D015
:40478000C0F12003042B02DDC0F11C0002E006D018461C30079B8044034404440793B8F1000F05DD42460499504600F05DFB0490079B002B05DD29461A46504600F054FBD5
:4047C0000546109B23B32946049800F09EFB00281EDA00230A220499504600F0D5F90A9B0BF1FF3B0490002B00F05F81314600230A22504600F0C8F9B9F1000F06463FDC62
:404800003BE000BFC85600000000144000002440059B002B2BDC1E9B022B28DDDDF81490B9F1000F11D129464B460522504600F0ABF901460546049800F067FB00280CDC16
:4048400003E0354600E000252E461F9B069C6FEA030B09E03546DDF820B0069B069A5C1C312313700BF1010B05960026F7E00A9BDDF8149023B9069CB2E01E9B022BCFDCA6
:40488000002C05DD31462246504600F0EDFA06469FB17168504600F02BF90446326906F10C01023292000C30FEF77CFD01222146504600F0D9FA059000E00596029B069FF1
:4048C00003F00103079329460498FFF7D7FA3146044600F13008049800F017FB059A02902946504600F02DFBC36802463BB901460A90049800F009FB0A9A034600E00123B6
:40490000114650460A9300F028F90A9B53B91E9A42B9079A32B9B8F1390F2AD0029B002B1CDC1DE0029A002A04DB1BD11E9ACAB9079ABAB9002B13DD01220499504600F003
:4049400093FA2946049000F0E0FA002803DC07D118F0010F04D0B8F1390F0AD004F131087C1C0CE0002B07F101040BDDB8F1390F03D139233B70013756E008F1010887F8CA
:4049800000806CE0069B2746E31A4B4504F8018C3BD000230A220499504600F0F5F8059B04909E424FF00A024FF000033146504604D100F0E9F80646059084E700F0E4F831
:4049C000002306460A220599504600F0DDF8059079E700230A220499504600F0D5F8049029460498FFF74AFA069B00F1300804F8018BE31A4B45ECDB069B0596B9F1010F7A
:404A0000ACBF4B4401331F46002601220499504600F02AFA2946049000F077FA002803DC15D118F0010F12D03C4614F8013C621E392B09D1069B934204D10BF1010B3123D8
:404A4000069A02E01446F0E70133137007E03C4614F8013C621E302B01D11446F8E72946504600F07AF8059B6BB12EB19E4203D03146504600F071F80599504600F06DF890
:404A800001E0DDF820B00499504600F066F80023209A23700BF101031360229B1BB11C6001E008480AE0069808E0B9F1000F3FF7E2AE1E9B022B7FF7DEAEB1E615B0BDE8FE
:404AC000F08F00BF8C560000004870476481FF1F10B5C9B202449042034605D01C7801308C42F8D1184610BD002010BD7047704770B5456A04460E463DB91020FEF74AFC69
:404B00006062456085600560C560656AEB6843B1636ADB6853F8260078B1026843F8262017E021220421204600F0B8FA636AE860DB68002BECD1002070BD012101FA06F5E8
:404B40006A1D9200204600F0A9FA0028F3D04660856000230361C36070BD70B5446A06460D463CB91020FEF715FC7062446084600460C4603DB1736A6A68DB6853F82210FA
:404B8000296043F8225070BD2DE9F04106460C460D691F4601F1140E0023DEF80000013381B202FB0171000C0F0C02FB007089B201EB00419D424FEA10474EF8041BECDC57
:404BC000D7B1A3689D4212DB616830460131FFF78FFF8046226904F10C01023292000C30FEF7E0FB21463046FFF7B7FF444604EB850301355F6125612046BDE8F081030CAB
:404C00001B0413B90004102300E0002310F07F4F04BF0002083310F0704F04BF0001043310F0404F04BF80000233002803DB420003D5581C704718467047202070470368FE
:404C400013F007020BD0D90722D49A074BBF5B089B08036003604CBF01200220704799B209B91B0C102213F0FF0F04BF1B0A0832190704BF1B090432990704BF9B080232EB
:404C8000D90702D45B0805D00132036010467047002070472020704710B50C460121FFF727FF01224461026110BD2DE9F74F14460A69236988469A42BEBF0B46A0461C46D3
:404CC000D8F81070D4F81090D8F80830D8F8041007EB09069E42C8BF0131FFF709FF00F114052B4605EB860C0022634502D243F8042BFAE704F1140208F1140102EB8903FC
:404D000001EB87070093009B0192934257D9B2F800B0BBF1000F23D08946AE464FF0000859F8044BBEF800A0A3B20BFB03A34FEA144ADEF8004043444FEA14480BFB0A84CD
:404D4000F24604EB13449BB243EA04434F454FEA14484AF8043B01D9D646E1E7CEF80480019B0432B3F802A0BAF1000F21D02C4689462B684FF00008B9F800E0B4F802B06E
:404D80009BB20AFB0EBEA346F04443EA08434BF8043B59F8043BB4F804E01B0C0AFB03E34F4503EB18434FEA134801D95C46E3E763600435A7E75CF8043D13B9013E002E7D
:404DC000F9DC066103B0BDE8F08F00002DE9F843154612F0030206460F4607D0214C013A002354F82220FFF7CFFE0746AD1036D0746A3CB91020FEF7CDFA70624460846030
:404E00000460C460D6F82480D8F808404CB940F271213046FFF740FF04460023C8F8080003604FF00008EB070AD5394622463046FFF73BFF814639463046FFF78EFE4F46DC
:404E40006D100CD0206808B10446ECE7224621463046FFF72AFF2060C0F80080F4E73846BDE8F883905700002DE9F0470C460746914626694FEA621A56444968A368751C11
:404E8000AB4202DA01315B00FAE73846FFF730FE002380461A4600F11401534503DA41F823200133F9E72AEAEA73206901EB830319F01F0904F1140101EB800E14D0C9F106
:404EC000200C002208689A4600FA09F0024343F8042B51F8042B8E4522FA0CF2F2D8CAF8042042B1B51C06E0043B51F8042B8E4543F8042FF9D8013D3846C8F810502146A7
:404F0000FFF72BFE4046BDE8F08703690A6910B59B1A11D192001430143183180A4453F8044D52F8041D8C4202D007D3012010BD9842F4D3002010BD184610BD4FF0FF30DB
:404F400010BD2DE9F8430C460746114620461546FFF7DBFF061E08D131463846FFF7C8FD012303614661BDE8F883BCBF23462C4638466168BABF1D4601260026FFF7B8FD1F
:404F80002B69C660266905F1140904F1140101EB860709EB830800F114054FF0000C51F8042B59F8044B93B29C44A3B2240CC3EB0C03C4EB124202EB23429BB24FEA224C76
:404FC000C84543EA02428E4645F8042BE7D8BE450ED25EF8041B8AB26244131403EB114392B242EA03424FEA234C45F8042BEEE755F8043D0BB9013EFAE70661BDE8F883FA
:405000002DE9F3411C4601219046089E099DFFF76FFDC4F31302C4F30A5407460CB142F480120192B8F1000F19D002A840F8088DFFF705FE009B48B1019AC0F1200102FACA
:4050400001F10B43C2407B61019200E07B61019B002B14BF02210121BB61396107E001A8FFF7EDFD019B01217B613961203034B1A4F2334404443460C0F1350009E0A0F20B
:40508000324007EB810330601869FFF7B8FDC0EB41102860384602B0BDE8F08138B502FB01F42146FEF7DEF9054618B122460021FEF783F9284638BD2DE9F0478E688246F4
:4050C0009E420C46914698463ED88A8912F4906F3AD02568096902236F1A656905EB450595FBF3F57B1C43449D4238BF1D4653050FD52946FEF7B6F9064698B13A4621691F
:40510000FEF750F9A38923F4906343F08003A38113E02A4600F039F9064670B921695046FEF754F90C23CAF80030A3894FF0FF3043F04003A381BDE8F08726613E442660C5
:4051400046466561ED1BA560464528BF464649463246206800F0FEF8A36800209B1BA36023681E442660BDE8F08700002DE9F04F9DB003938B8980461C060D4616460DD525
:405180000B695BB94021FEF76DF92860286118B90C23C8F80030CDE040236B610023099320238DF82930DFF89CB130238DF82A3037463C4614F8013B1BB9B7EB060910D0EC
:4051C00003E0252BF9D02746F3E74B46324629464046FFF771FF013000F0A780099B4B4409933B78002B00F0A08000234FF0FF3204930793059206938DF853301A93012633
:40520000052221784E48FFF763FC671C049B38B14B4A3C46801A06FA00F018430490EFE7D90644BF20228DF853201A0744BF2B228DF8532022782A2A03D0079A00210A2020
:405240000BE0039A111D12680391002A10DA524243F00200079204900BE027463B780134303B092B03D800FB02320121F5E701B107923B782E2B1ED17B782A2B0AD1039B72
:4052800002371A1D1B680392002BB8BF4FF0FF33059310E0002319460593781C0A2407463A780130303A092A03D804FB01210123F5E703B10591032239782248FFF708FCA2
:4052C00040B14023CBEB000003FA00F0049B013718430490397806221B487E1C8DF82810FFF7F6FB88B1194B33B9039B073323F007030833039314E003AB00932A46144B24
:4053000004A94046FEF79EF907E003AB00932A460F4B04A94046FEF74FFCB0F1FF3F824603D0099B5344099342E7AB895B0601D4099801E04FF0FF301DB0BDE8F08F00BFC5
:40534000C8570000CE570000D257000045360000B9500000884210B501EB020301D8421E0BE09842FBD28118D21AD34204D013F8014D01F8014DF8E710BD994204D011F87F
:40538000014B02F8014FF8E710BDF8B5074615460E4621B91146BDE8F840FEF763B81AB9FEF714F82846F8BD00F015F885420ED929463846FEF756F8044650B131462A46E0
:4053C000FDF7F0FF31463846FEF700F801E03046F8BD2046F8BD51F8040C0028BEBF091851F8043CC0180438704700004FEA410C7FEA6C5C02D150EA013C0AD14FEA430CEA
:405400007FEA6C5C02D152EA033C02D14FF0000070474FF001007047000000000000000057656C636F6D6520746F2074686520524F424F5420534F43434552205445535418
:4054400020444542554747494E47205445524D494E414C0A0D000000526F626F742049443A2025640D0A0000526F626F74206461746120726563656976656420666F722092
:4054800074686520726F626F7420696E207175657374696F6E206973206F76657220746865206C656E677468206F6620746865207265636569766520627566666572207375
:4054C000697A650A0D000000405100403000000001400010001401408006001B0140000100400140000A004C01400002005001402000000000510140240700480800801A51
:4055000001402C07004880003031323334353637383941424344454600000000010000002455000001000000685600000000000000000000010000003C55000001000000C1
:40554000245600000300000068550000000000000000000000000000000000000000000064550000020A000000008103080002000100820240000A000100030240000A007F
:4055800002030000040309042C0343007900700072006500730073002000530065006D00690063006F006E0064007500630074006F007200100355005300420055004100A8
:4055C000520054003803430044004300200043006F006D006D0075006E00690063006100740069006F006E00200049006E007400650072006600610063006500260343006D
:405600004400430020004400610074006100200049006E00740065007200660061006300650000000902430002010180320904000001020201030524001001042402020513
:405640002406000105240100010705810308000A09040100020A0000040705820240000007050302400000001201000202000008B40432F20100010280014300494E460053
:40568000696E66004E414E006E616E00300030313233343536373839414243444546003031323334353637383961626364656600496E66696E697479004E614E00504F5326
:4056C0004958002E00000000000000000000F03F000000000000244000000000000059400000000000408F40000000000088C34000000000006AF8400000000080842E4100
:4057000000000000D01263410000000084D797410000000065CDCD41000000205FA00242000000E876483742000000A2941A6D42000040E59C30A2420000901EC4BCD642D4
:4057400000003426F56B0C430080E03779C3414300A0D8855734764300C84E676DC1AB43003D9160E458E143408CB5781DAF154450EFE2D6E41A4B4492D54D06CFF0804482
:40578000F64AE1C7022DB544B49DD9794378EA4405000000190000007D000000000000000080E03779C34143176E05B5B5B89346F5F93FE9034F384D321D30F94877825AD6
:4057C0003CBF737FDD4F1575232D302B2000686C4C0065666745464700000000F8B500BFF8BC08BC9E4670474D000000090D0000F8B500BFF8BC08BC9E467047290000008D
:4058000010580000C880FF1FD80000007802000000000000010100001884FF1F0000E02EC05D00001800000000366E0100C2010000000800C201000000080000A12000004D
:40584000000002000000000000000000000000000000000000000000000000000000000000000000000000007A560000000000000000000000000000000000000000000056
:40588000000000000000000000000000000000000000000000000000000000000000000000000000000000000081FF1FC3560000CD570000CD570000CD570000CD570000A0
:4058C000CD570000CD570000CD570000CD570000CD570000FFFFFFFFFFFFFFFFFFFFFFFFFFFF00000000000000000000000000000000000000000000000000000000000002
:405900000000000000000000000000000000000000000000000000000000000000000000000000000000000000000000000000000000000000000000000000000000000067
:405940000000000000000000000000000000000000000000000000000000000000000000000000000000000000000000000000000000000000000000000000000000000027
:4059800000000000000000000000000000000000000000000000000000000000000000000000000000000000000000000000000000000000000000000000000000000000E7
:4059C00000000000000000000000000000000000000000000000000000000000000000000000000000000000000000000000000000000000000000000000000000000000A7
:020000040003F7
:0200000480007A
:4000000003450040075200400164004004650040040301400405014003070140610801403B090140020B0140010D0140531401404D15014056160140371701405C1801406C
:40004000471901401C1A01404D1B0140054001400E4101400C420140064301400445014004460140094701400248014016490140054C01400A4D01400550014000011601E7
:400080007E021001110261806440781079307C40880F840F870F883C8B7281018D10E240E6029D10A501E208E6089D10A501E60A00300247047105800608071908020A015C
:4000C0000F0110011102120E1480170419261B591C501F26204022032843294B2A302B342C242D4D2E412F32307F31C0333834803506370139023B283E103F40402341049D
:4001000045E0460C47BE483649FF4AFF4BFF4EF04F44500C54015604580459045A045B045C115D115F0166C06A406B0287018B059302A304B101B302B504BD08C032C1062E
:40014000C515C702C813C9FFCAFFCBFFCDA0CF04D018D280D904DA04DB04DC30DD33DF01E040E2C0E440E540E6C0E8C0EAC0ECC0EEC0068007140D080E400F0214041501F6
:4001800017801D011E48209023042640279429022C042E802F0931023501379438103B083D083F8040104110440445044680480849024B084F0150085480550857415E88EB
:4001C0005F11674071027910874488409E02C070C2B0C4D0CA31CCF1CE56D0E6D204D6F0D880DE04E002E6088602E208E602070409040B021201170319071D041F08210412
:40020000230129072E013307350836013B083E4040414105420649FF4AFF4BFF4F01501852805403580459045A045B045C105D225F056040624064406540668068806A80F9
:400240006C806E808203850188028E018F0192029301B201B301B402BF04C051C104C202C5ECC720C823C9FFCAFFCBFFCD83CE03CF01D018D804D904DA04DB04DC02DD0264
:40028000DF01E040E240E440E540E680E880EA80EC80EE800501060A09010C01134019401D101F08201421082604271028402B043098340138143D083E083F404242460220
:4002C000471148024A044D0A4F4055015602594A5B105C825F286C026D506E106F0571017240734079408088872888D18C02951096109C519D109F04A104A304A408A5088F
:40030000A708A840AC04AD01AF40B108B308B440C0D0C218C401CA05CC8ECE56D0B9D21CD6FFDE08E010E201E420E801EA200201040107010F04120113042F023104330211
:400340003501360140544103420249FF4AFF4BFF4F015018580459045A045C225D025F016040624064406540668068806A806C806E808302840285028E018F029402950112
:4003800099019E02A101A402A501AA02AE01B002B101B502B601BA08BE40BF11C054C103C202C5ECC720C823C9FFCAFFCBFFCD83CE03CF01D018D280D403D804D904DA0445
:4003C000DB04DC01DD22DF05E040E240E440E540E680E880EA80EC80EE8001080201040A084009080D0110181340188019881B041F4020402120221024082505284029084C
:400400002C01301031083602380839023B403C083F40412242104522470449054B404F405102520359855A2070017340791089089D10A501C035C215C407CA13CC86CE5BD6
:40044000D0E7D218D60FDE040218030805020AA50B010C630E8C1003110412041463169417081B021F0121022208285A2A842B0230903102321F33013460350437083820E3
:4004800039023A0A3E103F544002454049FF4A074BFF4C404D204EF04F055008541C5604580459045A045B045C115D115F01604061A8624063208A0F8E0192109608A204F8
:4004C000A602B00CB210B403BC08C034C106C501C654C702C81FC9FFCAFFCBFFCDA0CF04D018D804DA04DB04DC03DD03DF01E040E2C0E440E540E6C0E8C0EAC0ECC0EEC0F8
:4005000000900440060407800B600E200F8010A01501171018101B121C401D201E201F09250827492C402F0430043108350137643C203E083F02401042404520464047018B
:4005400048604A084D01508052085310550456045C045E026404664269706A407940870888409531970299019B909E02A340A504A708B080B310C0D3C23CC45CCAA0CCF0C7
:40058000CEE0D023D204D6C0D8B0DE08E08808010A0E0D0411011302140415021611170119072407280729072C022E11320733033418361837043E505280580459045B04BE
:4005C0005C115D305F0100100604071209080E15102A1440160A181019801A011B101E121F14214823022404254026042B082C402D802F1430223108360639403D803E040F
:400600004440460847044E024F20541057015D086C286D406F087340760677108140820288028A088B14920494049748984099089B049E08A410A601A701AB04AF02B2046B
:40064000B320B508B710C0E2C2E4C4D7CAF4CCC7CE58D0E0D230D640E2A0E680E848EC203180330235083640CCF03140330834023B80818084028D089D08A580A640A70276
:40068000CCD0CE10E6C03040340235408540874097809D40A640A70ACCB0E210E610844287089C42A640A70AE65055085B208710D403871097209F20A5080B280F10872487
:4006C000890897309F20A508C20EE404A640A70202080340052007800C1016808340860887808A808D209C10AC10AF02B240C0F0C280C420E050E480EA10EC40710476208F
:400700008710DC01DE041080731088809310AE20B504C408DC01E601E808000A0C0A100E1A061C0AFFCCEA0C0000000000000000061A002502000000001819240000003F7E
:400740000710180906001900110000001F3F0000003D000219070638040D001200000E030720101C0000288800000000250403000600E0C028FFFFFF62A0F0410C000000A9
:4007800000000212040404041111000100000000000040020010301000101012000000000000000000000000000000000100000000000000800042808000800000000000EB
:4007C0004000003030003000C0000000000B0B000000000040030300030000008F00000000000000000000000000000000000000000000000000000000000000000000007B
:4008000000000000000000000000000000000000000000000000000000000000000000000000000000000000000000000000000000000000000000000000000000000000B8
:400840000000000000000000000000000000000000000000000000000000000000000000000000000000000000000000000000000000000000000000000000000000000078
:400880000000000000000000000000000000000000000000000000000000000000000000000000000000000000000000000000000000000000000000000000000000000038
:4008C00000000000000000000000000000000000000000000000000000000000000000000000000000000000000000000000000000000000000000000000000000000000F8
:0200000490006A
:0400000000004005B7
:0200000490105A
:04000000BC90ACAF55
:0200000490303A
:020000006A1381
:0200000490402A
:4000000000000000000000000000000000000000000000000000000000000000000000000000000000000000000000000000000000000000000000000000000000000000C0
:400040000000000000000000000000000000000000000000000000000000000000000000000000000000000000000000000000000000000000000000000000000000000080
:400080000000000000000000000000000000000000000000000000000000000000000000000000000000000000000000000000000000000000000000000000000000000040
:4000C0000000000000000000000000000000000000000000000000000000000000000000000000000000000000000000000000000000000000000000000000000000000000
:0200000490501A
:0C00000000012E16106900012E3A7A7CD7
:00000001FF