:400000000080002011000000BD050000BD05000008B5044B1A6803F53F5302331A6000F0D5FA00BFFA46004010B5054C237833B9044B13B10448AFF300800123237010BD24
:400040003081FF1F000000004C170000084B10B51BB108490848AFF300800848036803B910BD074B002BFBD0BDE81040184700BF000000003481FF1F4C170000C880FF1F6C
:4000800000000000094B1A781A44012111711B78DBB2042B05D8054A13780B44DBB2137070470022014B1A70704700BF4C81FF1F094B5A7A1A44012111735B7ADBB2042B26
:4000C00005D8054A537A0B44DBB2537270470022014B5A72704700BF4C81FF1F704700BF38B5134B5B7C13F0FF0F1AD0104D2C78E4B200F08BFC05EB4404A08200F0B6FC77
:4001000000F05EFC00236B742B78DBB2042B04D82B780133DBB22B7038BD0022044B1A7038BD00F0D7FC0122014B5A7438BD00BF4C81FF1F38B5134B9B7F13F0FF0F1AD055
:40014000104D6C7AE4B200F093FB05EB4404208400F0BEFB00F066FB0023AB776B7ADBB2042B04D86B7A0133DBB26B7238BD0022044B5A7238BD00F0DFFB0122014B9A779C
:4001800038BD00BF4C81FF1F08B500F0EBFD10F0200F0ED000F0FAFD064A92F82A30DBB205490968C85492F82A300133DBB282F82A3008BD4C81FF1F0482FF1F2DE9F04167
:4001C00062B6002000F08AFA002000F0EBFB00F0BBFD08223C4B1A603C4B03F12C013C4A116068333B4A13603B4800F0C3FC3B4800F0E8FC3A4800F0C7FB3A4800F092FC9B
:40020000394800F033FD394800F008FD00F074F80546002200234FF00008C8E90223C8E9002300F09DFA00F0E7FA284B93F82A30DBB2302BF9D908232D4A1360244908686E
:40024000244A14680C601060204A92F82A60F6B2002482F82A401C4A136032E01C4B1A681378DBB2FF2B2BD15378DBB2FF2B27D19378DBB2012B23D1135D6B1E9B00D91CBD
:40028000505C191D12F801E0591D515C0633D75C41EA072740EA0E2000F090FF00224FF07D5301F001F84FF00008C8E90001384600F084FF00220F4B00F0F6FFC8E9020198
:4002C0000134B442CADBB0E700E100E04C81FF1F0482FF1F0082FF1FDD0000008901000085000000B1000000E10000003501000080E100E00000903F08B500F0C5FC0F283E
:4003000007D0072807D00B2807D0032807D1042008BD012008BD022008BD032008BD052008BD00BFFEE700BFF0B40022174611E050F82760F3B226F0FF0608E001EB42052A
:4003400011F812406D78A5550132013BDBB2002BF4D101371A2FEBD9F0BC7047064B1B78DBB203F00701054A11701B09013213704422034B1A707047CF0100496E58004085
:400380007658004008B50A46002101F0D6F908BD38B50522284B1A801C2328490B7002310A80274A13701925264B1D80182202331A70022203F276231A7008224FF0402332
:4003C0001A70032103F5007319701F4B1B78DBB21E490B701E4B1A8041F25122023B1A8000240CE01B4B1B7803F0010343EA440404F003044FF4F07000F08EFD013D0DB1E5
:40040000032CEFD115B90320FFF78CFF124B4FF480721A8007221A70002210490A704820023108701A700222033B1A700C4A137843F00703137038BD804000408240004066
:40044000864000408840004008010049A146004022420040254200400440004006400040A243004008B501F05DF908BD38B572B63C4A137843F00403137000240CE03A4D38
:40048000630019194A0011462A44084691882858FFF778FF0134E4B2082CF0D900240CE03148A20011194B000344B3F84020D96B986BFFF7D7FF0134E4B2012CF0D92B4942
:4004C0004FF09040FFF730FF294A2A4B1A602A4A03F500731A60294A137843F0020313701032137843F002031370254C237843F040032370A2F58632513A137843F010030C
:40050000137008221F492048FFF7ACFF08221F491F48FFF7A7FF08221E491F48FFF7A2FF0A221E491E48FFF79DFF08221D491E48FFF798FF1D4A137843F0080313701C4D4F
:4005400061232B70FFF724FF81232B700122194B1A70FFF703FF0E2221461748FFF782FF38BD00BFE8460040501700006C00004804040044D8160140848404040350014032
:40058000A0430040480800480251004050080048C251004058080048F251004060080048105100406C08004832510040224300400048004004000840B043004008B501F0A5
:4005C00085F803680C2B00D1FEE7FEE708B5104E104D16E029686B68AC68002204E051F8040B43F8040B0432A242F8D1E868002203E0002143F8041B04328242F9D11035F7
:40060000013E002EE6D101F067F8FFF7D7FDFEE701000000C417000008B5104A104B1A60104A136843F40073136000230AE0032B03D80D4A52F8231000E00C490C4A42F82E
:40064000231001332F2BF2D90A4B1A780A4B1A70074A0A4B1A60FFF709FF08BD0004FA050CED00E014ED00E000000000BD0500000080FF1FBC760040C080FF1F08ED00E083
:4006800001BE704770B504460E46074B1D681F2802D90020FFF7F4FF04F01F04103455F8240045F8246070BD08ED00E038B504460D46072902D90020FFF7E2FF1F2C02D9BE
:4006C0000020FFF7DDFF04F01F0000F1604000F564406D01EDB2057038BD00BF014B1870704700BF77650040024A137843F080031370704779650040014B1870704700BF00
:4007000009650040014B1870704700BF49650040014B1870704700BF29650040014B1870704700BF3965004008B50C4A137803F0C00343F0090313702032137843F0010369
:400740001370FF20FFF7D8FFFF20FFF7DBFF7F20FFF7DEFF3F20FFF7E1FF08BD7965004008B5054B1B7823B9FFF7DEFF0122024B1A70FFF7B9FF08BDF081FF1F024A13786F
:4007800043F080031370704774640040014B1870704700BF04650040014B1870704700BF44650040014B1870704700BF24650040014B1870704700BF3465004008B50D4AC1
:4007C000137803F0C00343F00903137002F59072137843F001031370FF20FFF7D7FFFF20FFF7DAFF7F20FFF7DDFF3F20FFF7E0FF08BD00BF7464004008B5054B1B7823B922
:40080000FFF7DCFF0122024B1A70FFF7B7FF08BDF181FF1F024A137843F080031370704777640040024A137803F07F031370704777640040014B1870704700BF87650040F3
:40084000014B1878704700BF67650040014B1880704700BF4C680040014B188880B270478C680040014B1880704700BF0C680040024B1B78024B188880B270470664004055
:400880008C680040400100F06000044B1A7802F09F021A701A781043187070477764004000F00C00054B1A7802F0F3021A701A78104340F010001870704700BF77640040A9
:4008C000024A137843F01003137070477764004008B501E0FFF7C0FFFFF7B2FF10F0080FF8D108BD08B54FF6FF70FFF7AFFF4FF6FF70FFF7B7FF8020FFF7C4FF0C4B1B782F
:4009000013F0100F02D11020FFF7CAFF00F00CFB084A137843F01003137000F009FBFFF7CFFFFFF7D5FF0020FFF784FF08BD00BF776400409765004008B5054B1B7823B9C4
:40094000FFF7D0FF0122024B1A70FFF763FF08BDF281FF1F014B1B685864704708ED00E04001C0B2014B1870704700BF01E400E00222014B1A60704700E100E00222014B5F
:400980001A60704780E100E010B50446FFF7F6FF2046FFF7DFFF0720FFF7E2FFFFF7E8FF10BD00BF014B1870704700BF76650040024A137843F080031370704775640040E5
:4009C000024A137803F07F031370704775640040014B1870704700BF85640040014B1878704700BF65640040014B1880704700BF48680040014B188880B27047886800403B
:400A0000014B1880704700BF08680040024B1B78024B188880B270470464004088680040400100F06000044B1A7802F09F021A701A781043187070477564004000F00C0056
:400A4000054B1A7802F0F3021A701A78104340F010001870704700BF75640040024A137843F01003137070477564004008B501E0FFF7C0FFFFF7B2FF10F0080FF8D108BDD8
:400A800008B54FF6FF70FFF7AFFF4FF6FF70FFF7B7FF8020FFF7C4FF0C4B1B7813F0100F02D11020FFF7CAFF00F03EFA084A137843F01003137000F03BFAFFF7CFFFFFF7ED
:400AC000D5FF0020FFF784FF08BD00BF756400409564004008B5054B1B7823B9FFF7D0FF0122024B1A70FFF763FF08BDF381FF1F014B1B681864704708ED00E04001C0B23F
:400B0000014B1870704700BF00E400E00122014B1A60704700E100E00122014B1A60704780E100E010B50446FFF7F6FF2046FFF7DFFF0720FFF7E2FFFFF7E8FF10BD00BFCA
:400B4000014B1B689865704708ED00E04001C0B2014B1870704700BF06E400E04022014B1A60704700E100E04022014B1A60704780E100E010B50446FFF7F6FF2046FFF740
:400B8000DFFF0720FFF7E2FFFFF7E8FF10BD00BF014B1B685865704708ED00E04001C0B2014B1870704700BF05E400E02022014B1A60704700E100E02022014B1A607047D3
:400BC00080E100E010B50446FFF7F6FF2046FFF7DFFF0720FFF7E2FFFFF7E8FF10BD00BF014B1B681867704708ED00E04001C0B2014B1870704700BF0CE400E04FF480525D
:400C0000014B1A60704700BF00E100E04FF48052014B1A60704700BF80E100E010B50446FFF7F4FF2046FFF7DBFF0720FFF7DEFFFFF7E4FF10BD00BF014B1B689864704716
:400C400008ED00E04001C0B2014B1870704700BF02E400E00422014B1A60704700E100E00422014B1A60704780E100E010B50446FFF7F6FF2046FFF7DFFF0720FFF7E2FF62
:400C8000FFF7E8FF10BD00BF014B1878704700BF6565004008B512490320FFF7F3FC07210320FFF703FD00220E4B1A7072220E4B1A70202203F580731A700C490420FFF76C
:400CC000E1FC07210420FFF7F1FC0622084B1A70472210331A700222B03B1A7008BD00BF0D0E0000F481FF1F88640040A50E00002665004010B500F017F904460E4A137846
:400D000043F02003137002F58072137843F0100313700A4A0823136009490B7843F010030B70102307490B60136000F0E7F8204600F0FEF810BD00BF9864004000E100E010
:400D40009664004080E200E008B5054B5B7823B9FFF7A0FF0122024B5A70FFF7CBFF08BDF481FF1F074B187800F07F00064B5B7913F0FF0F04D040F080000022024B5A710F
:400D8000704700BF68650040F481FF1F0822194B1A60194A9378DBB2D178C9B2127912F0FF0F01D18B4211D0144AD05CC0B20133DBB2092B00D900230F4A9370137913F063
:400DC000FF0F13D000220C4B1A710FE00C4B1B78DBB213F0200F06D00A4A1078C0B213F01E0F02D102E0002000E000200822064B1A60704780E100E0F481FF1F5882FF1FC5
:400E0000686500404864004000E100E01D4B1B78DBB213F01E0F05D01B4803F01E0201780A43027003F0200303F0FF0233B3174B1978C9B2164B1B78DBB21648C154164B0A
:400E40001B7813F0FF0F02D00121144B197010490B780133DBB20B700B78DBB2092B02D900210B4B19700A4B1978C9B20C4B1B78DBB2994202D10121074B1970002AC5D178
:400E8000704700BF68650040F481FF1F48640040F781FF1F5882FF1FF881FF1FF981FF1FF681FF1F13E0104B1B78DBB2042B02D900220D4B1A700C4A1378DBB20B49CB5C79
:400EC000DBB20B490B7013780133DBB21370064B1B78DBB2074A1278934204D0064B1B7813F0040FDFD07047FA81FF1F6482FF1F45650040FB81FF1F66640040054A13786D
:400F000043F0040313701032137843F004031370704700BFA24300400230800803D000BF01380046FCD17047EFF3108072B6704780F31088704700BF81F0004102E000BF5B
:400F400083F0004330B54FEA41044FEA430594EA050F08BF90EA020F1FBF54EA000C55EA020C7FEA645C7FEA655C00F0E2804FEA5454D4EB5555B8BF6D420CDD2C4480EAA6
:400F8000020281EA030382EA000083EA010180EA020281EA0303362D88BF30BD11F0004F4FEA01314FF4801C4CEA113102D0404261EB410113F0004F4FEA03334CEA13333A
:400FC00002D0524263EB430394EA050F00F0A780A4F10104D5F1200E0DDB02FA0EFC22FA05F2801841F1000103FA0EF2801843FA05F359410EE0A5F120050EF1200E012A8F
:4010000003FA0EFC28BF4CF0020C43FA05F3C01851EBE37101F0004507D54FF0000EDCF1000C7EEB00006EEB0101B1F5801F1BD3B1F5001F0CD349085FEA30004FEA3C0CBD
:4010400004F101044FEA445212F5800F80F09A80BCF1004F08BF5FEA500C50F1000041EB045141EA050130BD5FEA4C0C404141EB010111F4801FA4F10104E9D191F0000F67
:4010800004BF01460020B1FA81F308BF2033A3F10B03B3F120020CDA0C3208DD02F1140CC2F10C0201FA0CF021FA02F10CE002F11402D8BFC2F1200C01FA02F120FA0CFC08
:4010C000DCBF41EA0C019040E41AA2BF01EB0451294330BD6FEA04041F3C1CDA0C340EDC04F11404C4F1200220FA04F001FA02F340EA030021FA04F345EA030130BDC4F182
:401100000C04C4F1200220FA02F001FA04F340EA0300294630BD21FA04F0294630BD94F0000F83F4801306BF81F480110134013D4EE77FEA645C18BF7FEA655C29D094EA25
:40114000050F08BF90EA020F05D054EA000C04BF1946104630BD91EA030F1EBF0021002030BD5FEA545C05D14000494128BF41F0004130BD14F580043CBF01F5801130BD12
:4011800001F0004545F0FE4141F470014FF0000030BD7FEA645C1ABF194610467FEA655C1CBF0B46024650EA013406BF52EA033591EA030F41F4002130BD00BF90F0000F98
:4011C00004BF0021704730B54FF4806404F132044FF000054FF0000150E700BF90F0000F04BF0021704730B54FF4806404F1320410F0004548BF40424FF000013EE700BF50
:4012000042004FEAE2014FEA31014FEA02701FBF12F07F4393F07F4F81F06051704792F0000F14BF93F07F4F704730B54FF4607401F0004521F0004120E700BF50EA01027B
:4012400008BF704730B54FF000050AE050EA010208BF704730B511F0004502D5404261EB41014FF4806404F132045FEA915C3FF4DCAE4FF003025FEADC0C18BF03325FEA01
:40128000DC0C18BF033202EBDC02C2F1200300FA03FC20FA02F001FA03FE40EA0E0021FA02F11444C1E600BF70B54FF0FF0C4CF4E06C1CEA11541DBF1CEA135594EA0C0F4B
:4012C00095EA0C0F00F0DEF82C4481EA030621EA4C5123EA4C5350EA013518BF52EA033541F4801143F4801338D0A0FB02CE4FF00005E1FB02E506F00042E0FB03E54FF057
:401300000006E1FB03569CF0000F18BF4EF0010EA4F1FF04B6F5007F64F5407404D25FEA4E0E6D4146EB060642EAC62141EA55514FEAC52040EA5E504FEACE2EB4F1FD0CC1
:4013400088BFBCF5E06F1ED8BEF1004F08BF5FEA500E50F1000041EB045170BD06F0004646EA010140EA020081EA0301B4EB5C04C2BFD4EB0C0541EA045170BD41F4801109
:401380004FF0000E013C00F3AB8014F1360FDEBF002001F0004170BDC4F10004203C35DA0C341BDC04F11404C4F1200500FA05F320FA04F001FA05F240EA020001F000428C
:4013C00021F0004110EBD37021FA04F642EB06015EEA430E08BF20EAD37070BDC4F10C04C4F1200500FA04F320FA05F001FA04F240EA020001F0004110EBD37041F10001DB
:401400005EEA430E08BF20EAD37070BDC4F1200500FA05F24EEA020E20FA04F301FA05F243EA020321FA04F001F0004121FA04F220EA020000EBD3705EEA430E08BF20EA94
:40144000D37070BD94F0000F0FD101F00046400041EB010111F4801F08BF013CF7D041EA060195F0000F18BF704703F00046520043EB030313F4801F08BF013DF7D043EAC3
:401480000603704794EA0C0F0CEA135518BF95EA0C0F0CD050EA410618BF52EA4306D1D181EA030101F000414FF0000070BD50EA410606BF1046194652EA430619D094EAB5
:4014C0000C0F02D150EA013613D195EA0C0F05D152EA03361CBF104619460AD181EA030101F0004141F0FE4141F470014FF0000070BD41F0FE4141F4780170BD70B54FF087
:40150000FF0C4CF4E06C1CEA11541DBF1CEA135594EA0C0F95EA0C0F00F0A7F8A4EB050481EA030E52EA03354FEA013100F088804FEA03334FF0805545EA131343EA126338
:401540004FEA022245EA111545EA10654FEA00260EF000419D4208BF964244F1FD0404F5407402D25B084FEA3202B61A65EB03055B084FEA32024FF480104FF4002CB6EB97
:40158000020E75EB030E22BFB61A754640EA0C005B084FEA3202B6EB020E75EB030E22BFB61A754640EA5C005B084FEA3202B6EB020E75EB030E22BFB61A754640EA9C0000
:4015C0005B084FEA3202B6EB020E75EB030E22BFB61A754640EADC0055EA060E18D04FEA051545EA16754FEA06164FEAC30343EA52734FEAC2025FEA1C1CC0D111F4801F46
:401600000BD141EA00014FF000004FF0004CB6E711F4801F04BF01430020B4F1FD0C88BFBCF5E06F3FF6AFAEB5EB030C04BFB6EB020C5FEA500C50F1000041EB045170BD34
:401640000EF0004E4EEA113114EB5C04C2BFD4EB0C0541EA045170BD41F480114FF0000E013C90E645EA060E8DE60CEA135594EA0C0F08BF95EA0C0F3FF43BAF94EA0C0FBD
:401680000AD150EA01347FF434AF95EA0C0F7FF425AF104619462CE795EA0C0F06D152EA03353FF4FDAE1046194622E750EA410618BF52EA43067FF4C5AE50EA41047FF4AB
:4016C0000DAF52EA43057FF4EBAE12E7014B1868704700BF2C81FF1F0E4B70B51E460E4C0025E41AA410A54204D056F8253098470135F8E700F054F8084B094C1E46E41AED
:40170000A4100025A54204D056F8253098470135F8E770BDAC170000AC170000AC170000B417000010B5431E0A44914204D011F8014B03F8014FF8E710BD03460244934272
:4017400002D003F8011BFAE7704700000000000020510040100040510040300000000140800400050140000380080140800700140140000800400140000A004C0140000251
:4017800000500140200000008004014048070048800000080140C8070048800043000000F8B500BFF8BC08BC9E4670474D00000019060000F8B500BFF8BC08BC9E4670470F
:4017C00029000000D8170000C880FF1F6800000040010000000000000000000000000000000000000000000000000000000000000000000000000000000000009C1700000F
:40180000000000000000000000000000000000000000000000000000000000000000000000000000000000000000000000000000000000000000000000000000CC80FF1F3E
:401840000000000000000000000000000000000000000000000000000000000000000000000000000000000000000000000000000000000000000000000000000000000068
:401880000000000000000000000000000000000000000000000000000000000000000000000000000000000000000000000000000000000000000000000000000000000028
:4018C00000000000000000000000000000000000000000000000000000000000000000000000000000000000000000000000000000000000000000000000000000000000E8
:4019000000000000000000000000000000000000000000000000000000000000000000000000000000000000000000000000000000000000000000000000000000000000A7
:020000040003F7
:0200000480007A
:40000000024500400552004003640040026500401A04014035050140580601404507014009080140310901405C140140461501404B16014050170140521801405019014095
:40004000061B0140064001400A410140084201400D4301400B48014012490140064C0140064D01400650014002510140670178010004010C09800C406004850D860F887221
:40008000870D883C120134013C204051410449FF4AFF4BFF4F015018528058045A045B045C015D115F016040624064406540668068806A806C806E8004040540064009020A
:4000C0000E6A1504178219201C821D011E081F042440261027202E612F143510361437823C803E064242430244204602470148014D084F0156025C405D085F016D046E0753
:400100006F107102778279807F0280048101C0B0C2F8C4B0CAF0CCF0CED0D0D9D208D6D0DE18020806010A030C0716041A021E012203260329012A022E0334073501360879
:400140003F104012410349FF4AFF4BFF4F01501854015604580459045A045B045C015D215F016040624064406540668068806A806C806E80840186248701880F8C048E011D
:40018000921F96029E0FA301AA08B020B203B301B40CB610BB20BF04C012C103C5ECC620C80BC9FFCAFFCBFFCD83CE03CF01D018D29CD804D904DA04DB04DC21DD11DF01B3
:4001C000E040E240E440E540E680E880EA80EC80EE8000400108030404040510064007010A210B400E0A0F1010081622171218481A201B841D401F10202827082B402F08A3
:4002000039043B3041A0430445A0470449054C0C5120521058015A015C025D905F086601678068206A0272017340820187408904900495809640972099309A229B129D405B
:400240009E409F01A205AC21AF20C0F7C2EDC4F2CA21CE02D07ED6F0D880E604880192019801A801AE01B001D804DC02DF01030804020548060409220C400D200F501001BC
:4002800013101480161217201B021DE41F912404254026062C012D042F99344036023D803F10444045A24E084F40560857405E086E146F017606772081108A08C0F2C2FA82
:4002C000C4F3CAF0CC90CE30D0B0D230D640E2200A010B0126012B013101360140614103450146504702481949FF4AFF4BFF4DA04F045018580459045A045C115D015F0196
:40030000604062C06440654066C068C06AC06CC06EC080A084028508861C87308A018C488E828F029080920693C3948795C39660973499169B619E01A004A202A4E2A50164
:40034000A611A861A915AA8EABE2B103B201B3A0B4FEB570B70CB980BB2ABE04C032C106C5C0C60BC70EC816C9FFCAFFCBFFCEF0CF44D00CD804D904DA04DB04DC22DD02E9
:40038000DF01E6C0EA40EB0201200404064807020C0A0D080E200F021020168017141B401C241F102202244025102608271629202C082F1037163A103C403E88414445086C
:4003C0004608482049204E084F0251045210564057085C905D025E04834084908580860489028A028C109180940499209A089D809F12A002A210A510A709AA40B404C0F2E6
:40040000C2B0C474CA64CCE0CE54D06AD224D6F0E090E620010303040725095A0B0413181563171419631B0C2F083360351F39083B203F044002474049FF4A074BFF4C405B
:400440004D204EF04F05500859045A045B045C205D025F01604061A86240632081FC8233863387B289288A408E158FFC923F934D947C95C097039A3C9BB29D149E2AA13C0C
:40048000A5FCA62AAA15AB4DAE0CAFFFB003B27CB3FCB603B703BE40BF40D401D604D804D904DB04DC11DD10DF0500100216038008810A1810241201181019401A80218846
:4004C00022042610272828052A052B042C023020310832033380371A38093A103B403D203E083F024720540256085945620169806A206D106E506F057910800183048C840D
:400500008E1090089202934095809640980199259A109D809F05A020A384A580A709A802AB08AD10AE40AF01B014B508B740C00FC20FC407CA1FCCEFCEEFD020D60BD8010F
:40054000DE04E208E60CE840EA0801080330053F093F0F401001110119241B0A234024012512270C2A012E013101334035063601373838803F04541C5604580459045B0458
:400580005C225D205F01810482048301850789048B028D079202930394089E059F04A504A601A708B008B201B307B404B602B708BB08BC80BE01C012C106C551C702C813A7
:4005C000C9FFCAFFCBFFCDA0CF04D018D280D804D904DA04DB04DC21DD11DF01E040E2C0E440E540E6C0E8C0EAC0ECC0EEC0010209040A410E080F4410201504160117202D
:4006000019101A011B061F8021802330240B2502262429082D082F8031823620370139043A013B523C013E143F80400842014828490250085C045E02664267847240780856
:400640008304860287408C089004910492149342940297109A409B019C809D18A201A340A502B001B250B348B504B609B702C008C21DC4E4CAC2CCA9CEFFD00CD204D6C077
:40068000D8B0DE02E040E820EA08EC80EE40AB02B108B484B504E804EC403204334037883B10CCF0CE103380371056025910960897109FC8CC30D480D620228096089710CE
:4006C0009D109E029FD8A780C81081108310871097109D109E029F58A780AE84AF80E230E620EA400280820287889E029F48A680A780B680C010E210E6300222040805405B
:4007000074087B0283028622880889408C04AB40C0F0DC80DE20E040E220E440EE80084062019501AD01C202D80215019501AA01B040C404EA0100060A060C0410061A061E
:400740001C0600FF013F0000012404C0000022B800000000040001470F0000FF000060B8000948000000203F00006F47003F4000001200C0003F1F0003C010C00C3F600090
:4007800000000000000040013104000000EC002023FFFFFF0083030118009C00010000000404040411110005400040004040800080008000800080000000000000000000A4
:4007C00000000000000000000000080000001000025A0025211000096718002406006100610006000000613F000D1012077D6002067F000004470038461C204007201803F4
:4008000000002282000040042405060001000E0C14FFFFFF62A0F0410C00000000000212040404042222000100000000000040020010301000101012000000000000000009
:400840000000000000000000000C0C000C000000800C0C000C00000001000000000000008000408B8B008000000000000F000000000000000000000000000000000000004A
:400880000000000000000000000000000000000000000000000000000000000000000000000000000000000000000000000000000000000000000000000000000000000038
:4008C00000000000000000000000000000000000000000000000000000000000000000000000000000000000000000000000000000000000000000000000000000000000F8
:4009000000000000000000000000000000000000000000000000000000000000000000000000000000000000000000000000000000000000000000000000000000000000B7
:400940000000000000000000000000000000000000000000000000000000000000000000000000000000000000000000000000000000000000000000000000000000000077
:0200000490006A
:0400000000004005B7
:0200000490105A
:04000000BC90ACAF55
:0200000490303A
:02000000BBA79C
:0200000490402A
:4000000000000000000000000000000000000000000000000000000000000000000000000000000000000000000000000000000000000000000000000000000000000000C0
:400040000000000000000000000000000000000000000000000000000000000000000000000000000000000000000000000000000000000000000000000000000000000080
:400080000000000000000000000000000000000000000000000000000000000000000000000000000000000000000000000000000000000000000000000000000000000040
:4000C0000000000000000000000000000000000000000000000000000000000000000000000000000000000000000000000000000000000000000000000000000000000000
:0200000490501A
:0C00000000012E16106900012E21CC100A
:00000001FF